:100000000C9424010C9441010C9441010C94410185
:100010000C9441010C9441010C9441010C94410158
:100020000C9441010C9441010C9441010C94410148
:100030000C9441010C9483010C9441010C944101F6
:100040000C9441010C9441010C9441010C94410128
:100050000C9441010C9441010C9441010C94410118
:100060000C9441010C944101000000000000005F6D
:1000700000000007000700147F147F14242A7F2A41
:10008000122313086462364955225000050300000C
:10009000001C2241000041221C00082A1C2A0808DA
:1000A000083E0808005030000008080808080060F2
:1000B00060000020100804023E5149453E00427F86
:1000C000400042615149462141454B311814127F8D
:1000D0001027454545393C4A494930017109050316
:1000E0003649494936064949291E0036360000007E
:1000F000563600000008142241141414141441222E
:100100001408000201510906324979413E7E11115D
:10011000117E7F494949363E414141227F4141227A
:100120001C7F494949417F090909013E4149497AF2
:100130007F0808087F00417F41002040413F017F48
:10014000081422417F404040407F0204027F7F0428
:1001500008107F3E4141413E7F090909063E415159
:10016000215E7F09192946464949493101017F012C
:10017000013F4040403F1F2040201F3F4038403F4C
:100180006314081463070870080761514945430068
:100190007F41410002040810200041417F00040219
:1001A0000102044040404040000102040020545439
:1001B00054787F48444438384444442038444448C0
:1001C0007F3854545418087E090102085454543C92
:1001D0007F0804047800447D40002040443D007FB7
:1001E0001028440000417F40007C041804787C08FB
:1001F00004047838444444387C1414140808141453
:10020000187C7C080404084854545420043F44409B
:10021000203C4040207C1C2040201C3C4030403C86
:1002200044281028440C5050503C4464544C440022
:100230000836410000007F00000041360800080831
:100240002A1C08081C2A080811241FBECFEFD8E07A
:10025000DEBFCDBF12E0A0E0B1E0E0E0FBE102C014
:1002600005900D92A035B107D9F722E0A0E5B2E0E4
:1002700001C01D92A335B207E1F70E9449040C9416
:100280007E0D0C9400000E94E20140E051E060E02D
:1002900080E00E94C5034EE051E062E080E00E94F1
:1002A000C5034DE151E064E080E00E94C5034EE2E9
:1002B00051E066E080E00C94C503299A28E833E118
:1002C0008FE99FE00197F1F700C0000080917A006C
:1002D000806480937A0080917A0086FDFCCF8091C3
:1002E000780090917900059718F02150304041F73F
:1002F00029989FEF20E782E0915020408040E1F76D
:1003000000C0000008952F932FB72F938F939F93D2
:1003100080915102909152020196909352028093E3
:1003200051028C32914018F081E0809350029F91ED
:100330008F912F912FBF2F9118951092B9008CE0BB
:100340008093B80084E08093BC00089594EA909371
:10035000BC009091BC0097FFFCCF9091B900987FB2
:10036000983011F0903181F48093BB0084E8809341
:10037000BC008091BC0087FFFCCF9091B900987FB2
:1003800081E0983119F0089581E0089580E00895A2
:1003900084E98093BC008091BC0084FDFCCF08956B
:1003A0008093BB0084E88093BC008091BC0087FFF1
:1003B000FCCF9091B900987F81E0983209F00895C0
:1003C00080E00895CF93DF9388E70E94A60180E044
:1003D0000E94D00181E20E94D0010E94C80188E7FA
:1003E0000E94A60180E00E94D00180E00E94D0011E
:1003F0000E94C80188E70E94A60180E00E94D00107
:100400008FE70E94D0010E94C80188E70E94A601E0
:1004100080E00E94D00182E20E94D0010E94C801C7
:1004200088E70E94A60180E00E94D00180E00E943F
:10043000D0010E94C80188E70E94A60180E00E94C6
:10044000D00187E00E94D0010E94C80188E70E9485
:10045000A60180E40E94D001C0E0D4E080E00E94C8
:10046000D0012197D9F7DF91CF910C94C80188E78B
:100470000E94A60180E00E94D0018EEA0E94D00175
:100480000E94C80188E70E94A60180E00E94D00176
:1004900085ED0E94D0010E94C80188E70E94A60154
:1004A00080E00E94D00180E80E94D0010E94C80133
:1004B00088E70E94A60180E00E94D00188EA0E949D
:1004C000D0010E94C80188E70E94A60180E00E9436
:1004D000D0018FE30E94D0010E94C80188E70E94EA
:1004E000A60180E00E94D00183ED0E94D0010E940D
:1004F000C80188E70E94A60180E00E94D00180E048
:100500000E94D0010E94C80188E70E94A60180E0F5
:100510000E94D00180E40E94D0010E94C80188E7B7
:100520000E94A60180E00E94D0018DE80E94D001C7
:100530000E94C80188E70E94A60180E00E94D001C5
:1005400084E10E94D0010E94C80188E70E94A601B0
:1005500080E00E94D00180E20E94D0010E94C80188
:1005600088E70E94A60180E00E94D00180E00E94FE
:10057000D0010E94C80188E70E94A60180E00E9485
:10058000D00181EA0E94D0010E94C80188E70E9440
:10059000A60180E00E94D00188EC0E94D0010E9458
:1005A000C80188E70E94A60180E00E94D0018AED80
:1005B0000E94D0010E94C80188E70E94A60180E045
:1005C0000E94D00182E10E94D0010E94C80188E708
:1005D0000E94A60180E00E94D00181E80E94D00123
:1005E0000E94C80188E70E94A60180E00E94D00115
:1005F0008FEC0E94D0010E94C80188E70E94A601EA
:1006000080E00E94D00189ED0E94D0010E94C801C3
:1006100088E70E94A60180E00E94D00181EF0E943D
:10062000D0010E94C80188E70E94A60180E00E94D4
:10063000D0018BED0E94D0010E94C80188E70E9482
:10064000A60180E00E94D00180E40E94D0010E94B7
:10065000C80188E70E94A60180E00E94D00184EAD8
:100660000E94D0010E94C80188E70E94A60180E094
:100670000E94D00186EA0E94D0010E94C80188E74A
:100680000E94A60180E00E94D0018FEA0E94D00162
:100690000E94C8010C94E201CF93DF9300D0CDB744
:1006A000DEB789836A8388E70E94A60180E00E9402
:1006B000D00181E20E94D0010E94C80188E70E9417
:1006C000A60180E00E94D00189810E94D0010E9491
:1006D000C80188E70E94A60180E00E94D0018FE750
:1006E0000E94D0010E94C80188E70E94A60180E014
:1006F0000E94D00182E20E94D0010E94C80188E7D6
:100700000E94A60180E00E94D0018A810E94D0014F
:100710000E94C80188E70E94A60180E00E94D001E3
:1007200087E00E94D0010F900F90DF91CF910C9441
:10073000C8011F93CF93DF93C82F88E70E94A601BB
:1007400080E40E94D0018C2FC0320CF480E28052F1
:10075000982F990F990BEC01CC0FDD1FCC0FDD1FEB
:10076000C80FD91FC859DF4F15E0FE0184910E94C0
:10077000D001115021961111F8CF80E00E94D001D4
:10078000DF91CF911F910C94C801EF92FF921F93BC
:10079000CF93DF93C82FD62F7A0188E70E94A60156
:1007A00080E00E94D00181E20E94D0010E94C80135
:1007B00088E70E94A60180E00E94D0018C2F880F5C
:1007C0008C0F880F0E94D0010E94C80188E70E9408
:1007D000A60180E00E94D0018FE70E94D0010E9414
:1007E000C80188E70E94A60180E00E94D00182E251
:1007F0000E94D0010E94C80188E70E94A60180E003
:100800000E94D0018D2F0E94D0010E94C80188E76C
:100810000E94A60180E00E94D00187E00E94D001E2
:100820000E94C801F701C081C11569F1FFEFEF1AFD
:10083000FF0A88E70E94A60180E40E94D0018C2F65
:10084000C0320CF480E28052982F990F990BEC0182
:10085000CC0FDD1FCC0FDD1FC80FD91FC859DF4FCC
:1008600015E0FE0184910E94D001115021961111D2
:10087000F8CF80E00E94D0010E94C801F701C19129
:100880007F01C111D6CFDF91CF911F91FF90EF90E3
:100890000895CDB7DEB7C056D1090FB6F894DEBFC4
:1008A0000FBECDBF8AB18C608AB9219A87B18A7F89
:1008B00087B9429A40985A985B98299880EC80931F
:1008C0007C0087E880937A0080917A00806480932E
:1008D0007A0080917A0086FDFCCF0E949D010E94E3
:1008E000370278945B9A0E94E20140E051E060E0B8
:1008F00080E00E94C5034FE551E062E080E00E9485
:10090000C5034DE651E064E080E00E94C5030FEFAF
:100910001FE027E2015010402040E1F700C0000036
:100920005B985A9A0E944301AE014B5D5F4F25963A
:100930005FAF4EAF2597BE016B5E7F4F23967FAFB3
:100940006EAF2397B3E02B2EB4E03B2E3299FECF4F
:100950007FEF86E791E0715080409040E1F700C062
:1009600000003299F3CF329BFECF5B98DE01D59623
:100970003D01F1E08F2E912C0E94E20140E051E018
:1009800060E080E00E94C5031F922F929F928F9299
:10099000EDE7F1E0FF93EF939E012F5F3F4F3F9311
:1009A0002F930E94810AAE014F5F5F4F63E080E0AA
:1009B0000E94C50341E951E065E080E00E94C50363
:1009C0000E945D0110925202109251021092500248
:1009D0001092850010928400B09A31E030936F003D
:1009E00010928000309281000FB6F894DEBF0FBEE7
:1009F000CDBF20E030E080917A00806480937A005F
:100A000080917A0086FDFCCF40917800509179006A
:100A10002F5F3F4F243F61E0360729F48BB18325D8
:100A20008BB920E030E080915002811162C24C3FCE
:100A3000534008F32091840030918500109281008A
:100A400010926F0080915102909152025A984091F9
:100A50005002411163C2DC01C90189019D0160E0BE
:100A600070E026968FAF269727961FAF2797289678
:100A7000AFAF289729963FAF29972A961FAE2A979E
:100A80002B961FAE2B972C961FAE2C972D961FAE34
:100A90002D979C0128964FAD289729965FAD2997F1
:100AA000CB0106E00E94470A2696AFAC2697B12EEE
:100AB0002896CFAC28972996DFAC2997E12CF12C0A
:100AC00087010E94600A03E00E94470A00E00E943A
:100AD000600A05E00E94470AECE4AE2EE4E0BE2E78
:100AE000670100E00E94EA09C901DA01F3012083ED
:100AF00091834283B383892B8A2B8B2B09F40EC2FB
:100B0000F4E06F0E711C0FEF13EC29E00150104060
:100B10002040E1F700C000003FEF831A930A44E051
:100B20008416910409F028CFC9ACDAACEBACFCAC6C
:100B30008DA89EA8AFA8B8AC2996CCAEDDAEEEAE1F
:100B4000FFAE29978C149D04AE04BF0430F429969F
:100B50008CAE9DAEAEAEBFAE299721964CAC5DACCF
:100B60006EAC7FAC219761968CAE9DAEAEAEBFAE43
:100B70006197481459046A047B0430F461964CAEC2
:100B80005DAE6EAE7FAE61979401A50184149504AD
:100B9000A604B70410F49201A30161966CAD7DAD7B
:100BA0008EAD9FAD6197261B370B480B590BA4E602
:100BB000B0E00E94B20969966CAF7DAF8EAF9FAF77
:100BC000699761968CAD9DADAEADBFAD6197880F55
:100BD000991FAA1FBB1F880F991FAA1FBB1F8C013B
:100BE0009D01000F111F221F331F000F111F221F15
:100BF000331F61964CAD5DAD6EAD7FAD6197041B4B
:100C0000150B260B370B6D960CAF1DAF2EAF3FAFFC
:100C10006D976196CCAEDDAEEEAEFFAE61974C1433
:100C20005D046E047F0430F461964CAE5DAE6EAE32
:100C30007FAE61979601A701C414D504E604F704BA
:100C400010F49201A30161966CAD7DAD8EAD9FADA8
:100C50006197261B370B480B590BA4E6B0E00E94A6
:100C6000B20965966CAF7DAF8EAF9FAF6597619609
:100C70008CAD9DADAEADBFAD6197880F991FAA1F1A
:100C8000BB1F880F991FAA1FBB1F8C019D01000F5E
:100C9000111F221F331F000F111F221F331F6196C8
:100CA0004CAD5DAD6EAD7FAD6197041B150B260B92
:100CB000370B61960CAF1DAF2EAF3FAF619796011A
:100CC000A701C814D904EA04FB0410F49401A50197
:100CD00029966CAD7DAD8EAD9FAD2997261B370B48
:100CE000480B590BA4E6B0E00E94B209AB01BC016D
:100CF00029968CAD9DADAEADBFAD2997880F991FDC
:100D0000AA1FBB1F880F991FAA1FBB1F880F991FFF
:100D1000AA1FBB1F880F991FAA1FBB1F29960CADC6
:100D20001DAD2EAD3FAD2997801B910BA20BB30BD0
:100D300084179507A607B70708F02BC16D960CAD71
:100D40001DAD2EAD3FAD6D9769964CAD5DAD6EADF1
:100D50007FAD6997041715072607370708F03AC2D1
:100D600061960CAD1DAD2EAD3FAD619765964CAD56
:100D70005DAD6EAD7FAD6597041715072607370784
:100D800008F0C3C25A986DA97EA98FA998AD683E94
:100D900053E075078105910508F08BC29F938F93EF
:100DA0007F936F936AED71E07F936F9325969FAD6C
:100DB00025979F932496AFAD2497AF930E94810A05
:100DC0000FB6F894DEBF0FBECDBF69AD7AAD8BAD67
:100DD0009CAD683EA3E07A078105910508F03DC20D
:100DE0009F938F937F936F93EAEDF1E0FF93EF93DF
:100DF00023961FAD23971F9322962FAD22972F93F3
:100E00000E94810A0FB6F894DEBF0FBECDBF2196B7
:100E10006CAD7DAD8EAD9FAD2197683EF3E07F0751
:100E20008105910508F0F1C19F938F937F936F9394
:100E30000AED11E01F930F93AE014F5F5F4F5F9379
:100E40004F930E94810A0FB6F894DEBF0FBECDBF4C
:100E50000E94E2014EEE51E060E080E00E94C50396
:100E600049EF51E062E080E00E94C503AE014B5DB6
:100E70005F4F63E080E00E94C503AE014B5E5F4FB1
:100E800064E080E00E94C503AE014F5F5F4F65E004
:100E900080E00E94C50348E052E067E080E00E94E5
:100EA000C50386E05B9A1FEF23EC39E01150204028
:100EB0003040E1F700C000005B984FEF53EC69E071
:100EC000415050406040E1F700C00000815051F7B0
:100ED0005B9A7FEF8BE792E9715080409040E1F799
:100EE00000C000005B980E945D015A9A0E94430175
:100EF0002DCD2091840030918500109281001092B8
:100F00006F0080915102909152025A986091500264
:100F1000611104C04C3F534008F09DCD5A980E9487
:100F2000E2014EE951E061E080E00E94C5034CEA35
:100F300051E063E080E00E94C5034AEB51E064E0C9
:100F400080E00E94C5034AEC51E066E080E00E9428
:100F5000C50385E05B9A5FEF63EC79E05150604038
:100F60007040E1F700C000005B989FEFA3ECB9E090
:100F70009150A040B040E1F700C00000815051F70F
:100F80005B9AEFEFF7EA01E6E150F0400040E1F74D
:100F9000A7CF6D960CAD1DAD2EAD3FAD6D9769968B
:100FA0004CAD5DAD6EAD7FAD699704171507260793
:100FB000370708F0E6C061960CAD1DAD2EAD3FAD14
:100FC000619765964CAD5DAD6EAD7FAD65970417CD
:100FD00015072607370708F0D5CE8C0C9D1CAE1CD4
:100FE000BF1CB694A7949794879481149104A1048C
:100FF000B10409F4C7CEA8EE8A16A3E09A06A104AC
:10100000B104B8F4BF92AF929F928F92EAEDF1E0F3
:10101000FF93EF939E012F5F3F4F3F932F930E94CB
:10102000810A0FB6F894DEBF0FBECDBF0DE311E00D
:101030003BC0B401C50128EE33E040E050E00E941F
:101040009009122F032FF42EE52E2AE030E040E025
:1010500050E00E9490095F934F933F932F93EF923C
:10106000FF920F931F9361EE71E07F936F93DE0108
:101070001196BF93AF930E94810A0FB6F894DEBF1A
:101080000FBECDBFF0E18F16F7E29F06A104B104B9
:1010900068F201E8801606E9900608E9A006B104A6
:1010A00008F451C00EE411E00E94E20140E051E07A
:1010B00060E080E00E94C50349E252E062E080E027
:1010C0000E94C503AE014F5F5F4F63E080E00E9466
:1010D000C503A80165E080E00E94C5034FE352E02C
:1010E00066E080E00E94C5035A9883E05B9A1FEF98
:1010F00023EC39E0115020403040E1F700C00000FF
:101100005B984FEF53EC69E0415050406040E1F78D
:1011100000C00000815051F75B9A48E152E067E05F
:1011200080E00E94C5037FEF85EA9EE07150804019
:101130009040E1F700C000000E945D015B985A9A60
:101140000E94430103CC0E94E20140E051E060E0D4
:1011500080E00E94C50349E252E062E080E00E9424
:10116000C503AE014F5F5F4F63E080E00E94C5039F
:1011700043E352E065E080E00E94C5035B985A9A21
:10118000CCCF61960CAD1DAD2EAD3FAD6197659690
:101190004CAD5DAD6EAD7FAD6597041715072607A5
:1011A000370708F4EFCDC80CD91CEA1CFB1CB601AC
:1011B000C701640D751D861D971D2BEA3AEA4AEAA0
:1011C0005AEA0E94BD094B015C01B694A79497941A
:1011D00087940BCF61960CAD1DAD2EAD3FAD6197E1
:1011E00065964CAD5DAD6EAD7FAD65970417150787
:1011F0002607370708F0C6CD840C951CA61CB71C23
:10120000B694A79497948794F0CE28EE33E040E00C
:1012100050E00E949009122F032FF42EE52E2AE0B1
:1012200030E040E050E00E9490095F934F933F937D
:101230002F93EF92FF920F931F9381EE91E09F9374
:101240008F93FE013196FF93EF930E94810A0FB6B0
:10125000F894DEBF0FBECDBFFBCD28EE33E040E0FB
:1012600050E00E949009122F032FF42EE52E2AE061
:1012700030E040E050E00E9490095F934F933F932D
:101280002F93EF92FF920F931F9361EE71E07F9384
:101290006F9323969FAD23979F932296AFAD22978E
:1012A000AF930E94810A0FB6F894DEBF0FBECDBF88
:1012B000AECD28EE33E040E050E00E949009122FBE
:1012C000032FF42EE52E2AE030E040E050E00E94AB
:1012D00090095F934F933F932F93EF92FF920F9359
:1012E0001F9301EE11E01F930F9325963FAD2597B5
:1012F0003F9324964FAD24974F930E94810A0FB6D7
:10130000F894DEBF0FBECDBF60CD46015701840CFF
:10131000951CA61CB71CB694A7949794879465CE89
:10132000A1E21A2EAA1BBB1BFD010DC0AA1FBB1FE9
:10133000EE1FFF1FA217B307E407F50720F0A21B5B
:10134000B30BE40BF50B661F771F881F991F1A94C8
:1013500069F760957095809590959B01AC01BD01F2
:10136000CF0108950E94690AA59F900DB49F900D2A
:10137000A49F800D911D11240895E894DF93CF93CD
:10138000FC01DB010E94690A7F936F93E9019A01D6
:10139000AC01BF93AF933F932F93DF010E94690A83
:1013A00026F46C1B7D0B820B930B9E01EB01FC0161
:1013B0000E94780AAF91BF912F913F910E94780AC5
:1013C000BE01CF01F9012F913F91CF91DF91089597
:1013D000689401C0E8948F929F92CF93DF930E940C
:1013E000F609DF91CF919F908F90089588249924DA
:1013F000F401E401B0E49F93AA279A158B049C049E
:10140000ED05FE05CF05D007A10798F4AD2FDC2F21
:10141000CF2FFE2FE92D982C892E982F872F762FEE
:10142000652F542F432F322F2227B85031F7BF9109
:1014300027C01B2EBF91BB27220F331F441F551FF0
:10144000661F771F881F991F881C991CEE1FFF1F9E
:10145000CC1FDD1FAA1FBB1F8A149B04EC05FD05D2
:10146000CE05DF05A007B10748F08A189B08EC09F4
:10147000FD09CE09DF09A00BB10B21601A94E1F63A
:101480002EF49401AF01BE01CD01000C0895002E91
:10149000083090F0982F872F762F652F542F432FE9
:1014A000322F22270850F4CF220F331F441F551F1D
:1014B000661F771F881F991F0A95B2F7002D0895A0
:1014C0002A0D3B1D4C1D5D1D6E1D7F1D801F911F34
:1014D0000895A29FB001B39FC001A39F700D811D0D
:1014E0001124911DB29F700D811D1124911D08952D
:1014F0000E94690A460F571FC81FD91F08F431966A
:101500000895AEE0B0E0E7E8FAE00C94570D86E00D
:101510008C832B893C8929833A838FEF9FE78D83C6
:101520009E83AE01495E5F4F6D897E89CE01019633
:101530000E94A50AEF81F8852B893C89E20FF31FF1
:1015400010822E96E2E00C94730DACE0B0E0EBEA72
:10155000FAE00C944A0D5C016B017A01FC011682E1
:101560001782838181FFD3C12AE0522EF5012381A6
:10157000F60123FD859123FF81916F01811509F407
:101580002CC1853239F423FD959123FF91916F0190
:10159000953229F4B50190E00E94A00CE7CF30E02D
:1015A000712C00E010E0103210F59B32C9F050F4BD
:1015B0009032B9F09332C9F09E3261F516FD0DC13B
:1015C000106405C09D3279F0903399F41160F601F2
:1015D00023FD959123FF91916F019111E4CF23C0D9
:1015E00012601460F4CF1860F2CF1061F0CF17FDD5
:1015F0001AC080ED890F8A30F8F616FF05C0759C79
:10160000800D1124782EE3CF059D800D1124082F25
:101610001062DDCF9C3611F41068D9CF9C3409F4E8
:1016200040C09836A1F2892F8F7D85548330D8F140
:10163000933609F45FC0933709F46AC0933509F40F
:1016400076C0943619F0993609F0A2C0F70117FF59
:1016500098C061917191819191917F011F7697FF5F
:1016600003C00E943F0D10682AE030E04E014FEFAA
:10167000841A940AA4010E94E10C682E681816FFCF
:10168000D2C0812F8E7F671408F0CCC014FF1DC11B
:1016900012FD11C11E7E972C812F867809F4CEC0D1
:1016A0000FC131E094CF311509F1F8E0EF0EF11CD4
:1016B0008FE3898391E0692E712C4E018FEF881A98
:1016C000980A1F7713FD04C06016710408F43FC028
:1016D0006114710409F042C0011509F447CFB50146
:1016E00080E290E00E94A00C0150F6CF44E0E40EAE
:1016F000F11CDECFF70180818983F2E0EF0EF11C4F
:1017000081E0682E712C4E014FEF841A940AD9CFD4
:10171000F701819091907F01672D70E016FD02C066
:101720006FEF7FEFC4010E94950C3C01CACFF70117
:10173000819091907F01672D70E016FD02C06FEFE0
:101740007FEFC4010E948A0C3C011068BBCFB50139
:1017500080E290E00E94A00C0150B6CFF40117FD8A
:10176000859117FF81914F01B50190E00E94A00C77
:1017700081E0011101C080E0081BF1E06F1A7108DF
:10178000A7CF61917191872F880F880B982F65CF14
:101790009537C9F41F7E1C872AE030E0FC85F7FFEF
:1017A0003BC0F70161917191819191917F014E014F
:1017B0004FEF841A940AA4010E94E10C682E681865
:1017C0001C851F775CCF812F897F8C87903799F09C
:1017D00058F49835B9F09F36E1F0F501868197818C
:1017E0002C96EFE00C94660D9837B9F714FD06C0FF
:1017F00020E130E0D3CF9C8590619C87EC85E4604C
:10180000EC87F6CF14FF02C016601C8720E132E09F
:10181000C5CF28E030E0C2CFF7016191719180E03F
:1018200090E0C4CF182F962C14FF36CFFE01E60DA2
:10183000F11D8081803309F041C0197E13FD0EC077
:1018400010FF4FC0762C901618F4700E7918902E59
:10185000802F8919091508F480E0980E901608F079
:1018600042C0091914FF41C0B50180E390E00E9415
:10187000A00C12FF09C088E590E011FD02C088E7C6
:1018800090E0B5010E94A00C6714D0F14E018FEFDB
:10189000881A980A6A94FE013296E60DF11D3F01FE
:1018A000F30182913F01B50190E00E94A00C681401
:1018B0007904B1F711CF972C182FB8CF12FD02C0C1
:1018C0009394BCCF93949394B9CF972C182FE4CED4
:1018D000B50180E290E00E94A00C83948016C0F3D2
:1018E000B7CF892CFBCF00E0BDCF812F867861F286
:1018F00080E211FD8BE217FD8DE2B50190E0C2CFD1
:10190000B50180E390E00E94A00C7A94BDCF8FEFE8
:101910009FEF66CFFC010590615070400110D8F731
:10192000809590958E0F9F1F0895FC016150704027
:1019300001900110D8F7809590958E0F9F1F089504
:10194000A3E0B0E0E6EAFCE00C94560D182F998372
:101950006A837B83DB0113968C9181FD09C01FEFA5
:10196000BFEFB983812F99812396E3E00C94720D28
:1019700082FF1BC0EA81FB812681378184819581AA
:101980002817390754F40190F081E02DCF0101961A
:10199000AA81BB818D939D931083EA81FB8186810F
:1019A0009781019686839783DDCFAA81BB811896A4
:1019B000ED91FD911A97BD01812F0995892B69F34E
:1019C000CECFFA01AA27283051F1203181F1E894D5
:1019D0006F936E7F6E5F7F4F8F4F9F4FAF4FB1E022
:1019E0003ED0B4E03CD0670F781F891F9A1FA11D1D
:1019F000680F791F8A1F911DA11D6A0F711D811D1E
:101A0000911DA11D20D009F468943F912AE0269FE2
:101A100011243019305D3193DEF6CF010895462F41
:101A20004770405D4193B3E00FD0C9F7F6CF462F22
:101A30004F70405D4A3318F0495D31FD405241938B
:101A400002D0A9F7EACFB4E0A69597958795779548
:101A50006795BA95C9F700976105710508959B01CF
:101A6000AC010A2E06945795479537952795BA9558
:101A7000C9F7620F731F841F951FA01D08959095CD
:101A80008095709561957F4F8F4F9F4F08952F924E
:101A90003F924F925F926F927F928F929F92AF92FE
:101AA000BF92CF92DF92EF92FF920F931F93CF934B
:101AB000DF93CDB7DEB7CA1BDB0B0FB6F894DEBFE2
:101AC0000FBECDBF09942A88398848885F846E8408
:101AD0007D848C849B84AA84B984C884DF80EE8052
:101AE000FD800C811B81AA81B981CE0FD11D0FB65B
:101AF000F894DEBF0FBECDBFED010895F894FFCF7F
:101B0000204B6170546573746572205632005374B3
:101B1000617475733A204265726569740044555466
:101B200020616E7363686C69657373656E005354EE
:101B30004152542064727565636B656E0057617223
:101B40006E756E673A203C20313075462100576132
:101B5000726E756E673A203E2031306D4621004826
:101B60006F636866616872656E2E2E2E00496E691D
:101B70007469616C6973696572756E67004D657330
:101B800073756E67202575202F202575202E2E2E2B
:101B90000042697474652077617274656E002A2A48
:101BA0002054494D454F5554202A2A004B65696EF3
:101BB00020445554206F646572003C2031302075FC
:101BC000462065726B616E6E7400506F6C756E6747
:101BD000207072756566656E2100256C75206E46F5
:101BE00000256C752E2530326C75207546002A2A2A
:101BF000204641494C202A2A00576572746520739B
:101C000074726575656E3A004B6F6E74616B74200B
:101C10007072756566656E0053544152543D6E6531
:101C200075206D657373656E0045726765626E69D8
:101C3000733A00426572656963683A204F4B004110
:101C40007573736572682E204265726569636800FA
:00000001FF
