:100000000C9424010C9441010C9441010C94410185
:100010000C9441010C9441010C9441010C94410158
:100020000C9441010C9441010C9441010C94410148
:100030000C9441010C94EC010C9441010C9441018D
:100040000C9441010C9441010C9441010C94410128
:100050000C9441010C9441010C9441010C94410118
:100060000C9441010C944101000000000000005F6D
:1000700000000007000700147F147F14242A7F2A41
:10008000122313086462364955225000050300000C
:10009000001C2241000041221C00082A1C2A0808DA
:1000A000083E0808005030000008080808080060F2
:1000B00060000020100804023E5149453E00427F86
:1000C000400042615149462141454B311814127F8D
:1000D0001027454545393C4A494930017109050316
:1000E0003649494936064949291E0036360000007E
:1000F000563600000008142241141414141441222E
:100100001408000201510906324979413E7E11115D
:10011000117E7F494949363E414141227F4141227A
:100120001C7F494949417F090909013E4149497AF2
:100130007F0808087F00417F41002040413F017F48
:10014000081422417F404040407F0204027F7F0428
:1001500008107F3E4141413E7F090909063E415159
:10016000215E7F09192946464949493101017F012C
:10017000013F4040403F1F2040201F3F4038403F4C
:100180006314081463070870080761514945430068
:100190007F41410002040810200041417F00040219
:1001A0000102044040404040000102040020545439
:1001B00054787F48444438384444442038444448C0
:1001C0007F3854545418087E090102085454543C92
:1001D0007F0804047800447D40002040443D007FB7
:1001E0001028440000417F40007C041804787C08FB
:1001F00004047838444444387C1414140808141453
:10020000187C7C080404084854545420043F44409B
:10021000203C4040207C1C2040201C3C4030403C86
:1002200044281028440C5050503C4464544C440022
:100230000836410000007F00000041360800080831
:100240002A1C08081C2A080811241FBECFEFD8E07A
:10025000DEBFCDBF12E0A0E0B1E0E6E6F5E102C00E
:1002600005900D92A035B107D9F722E0A0E5B2E0E4
:1002700001C01D92A335B207E1F70E9406020C945B
:10028000B10A0C94000080917A00806480937A0017
:1002900080917A0086FDFCCF809178009091790062
:1002A00008950E940B0640E051E060E080E00E946B
:1002B000BF064EE051E062E080E00E94BF064DE1E3
:1002C00051E064E080E00E94BF064EE251E066E04B
:1002D00080E00C94BF0690E05B9A2FEF33EC49E08E
:1002E000215030404040E1F700C000005B982FEF04
:1002F00033EC49E0215030404040E1F700C00000BD
:100300009F5F8913E9CF0895CF93DF93299AC8E8B7
:10031000D3E18FE99FE00197F1F700C000000E9450
:100320004301863D914010F0219799F72998DF917C
:10033000CF910895CF93DF9300D000D000D0CDB7F8
:10034000DEB74D835E83683E23E072078105910529
:10035000E0F49F938F937F936F938DE391E09F934E
:100360008F938E818F939D819F930E94B4070FB6C8
:10037000F894DEBF0FBECDBF0F900F900F900F907F
:100380000F900F90DF91CF91089528EE33E040E079
:1003900050E00E94F40629833A834B835C832AE071
:1003A00030E040E050E00E94F4065F934F933F93AB
:1003B0002F939C819F932B812F938A818F93998177
:1003C0009F9384E491E09F938F932E812F938D814F
:1003D0008F930E94B407CBCF2F932FB72F938F9378
:1003E0009F938091510290915202019690935202F4
:1003F000809351028C32914018F081E0809350023A
:100400009F918F912F912FBF2F911895CDB7DEB768
:10041000CF55D1090FB6F894DEBF0FBECDBF8AB15C
:100420008C608AB9219A87B18A7F87B9429A4098AD
:100430005A985B98299880EC80937C0087E8809399
:100440007A0080917A00806480937A0080917A00AB
:1004500086FDFCCF0E94B4050E94300678945B9A1A
:100460000E940B0640E051E060E080E00E94BF0681
:1004700043E751E062E080E00E94BF0641E851E0BE
:1004800064E080E00E94BF060FEF1FE027E201500A
:1004900010402040E1F700C000005B985A9A0E948B
:1004A00051011E013FEF231A330A3299FECF4FEF5D
:1004B00056E781E0415050408040E1F700C0000025
:1004C00086B1982F947060969FAF609782FDEDCFB4
:1004D000329BFECF5B983E01A5E36A0E711CA1E042
:1004E0008A2E912CB1E94B2EB1E05B2E0E940B06B7
:1004F00040E051E060E080E00E94BF061F92B3E060
:10050000BF939F928F925F924F923F922F920E9441
:10051000B407A10163E080E00E94BF0645EA51E014
:1005200065E080E00E94BF060E9484010E944301B2
:100530009C01ACE4B4E00E94E5060FB6F894DEBF7F
:100540000FBECDBF2FEF33E040E050E00E94F40635
:1005500025962CAF3DAF4EAF5FAF2597C901DA01AD
:100560008B519440A109B1092E962FAE2E972F964C
:100570003FAE2F97C297A105B10508F015C180E0E5
:1005800090E0DC01F30180839183A283B383892B04
:100590008A2B8B2B09F4C1C2F4E06F0E711C0FEF94
:1005A00013EC29E0015010402040E1F700C00000AA
:1005B0003FEF831A930A44E08416910409F096CF22
:1005C00049AC5AAC6BAC7CACCDA8DEA8EFA8F8ACBB
:1005D00064964CAE5DAE6EAE7FAE6497C414D50427
:1005E000E604F70430F46496CCAEDDAEEEAEFFAEBA
:1005F000649721968CAC9DACAEACBFAC2197259690
:10060000CCAEDDAEEEAEFFAE25978C149D04AE04ED
:10061000BF0430F425968CAE9DAEAEAEBFAE25972E
:100620009601A701C814D904EA04FB0410F494014C
:10063000A50125968CAD9DADAEADBFAD2597281B10
:10064000390B4A0B5B0BA4E6B0E00E9416076896D4
:100650006CAF7DAF8EAF9FAF6897AFE025962CADA6
:100660003DAD4EAD5FAD25970E9416076C966CAF01
:100670007DAF8EAF9FAF6C972D964CAE5DAE6EAEDC
:100680007FAE2D9784149504A604B70430F42D96FC
:100690008CAE9DAEAEAEBFAE2D979201A3014814B5
:1006A00059046A047B0410F49401A5012D968CADC5
:1006B0009DADAEADBFAD2D97281B390B4A0B5B0B23
:1006C000A4E6B0E00E94160725966CAF7DAF8EAF12
:1006D0009FAF2597AFE02D962CAD3DAD4EAD5FADF4
:1006E0002D970E9416072D966CAF7DAF8EAF9FAFF2
:1006F0002D979201A3014C145D046E047F0410F445
:100700009601A70164968CAD9DADAEADBFAD64976B
:10071000281B390B4A0B5B0BA4E6B0E00E941607BE
:10072000A0966CAF7DAF8EAF9FAFA097AFE0649601
:100730002CAD3DAD4EAD5FAD64970E941607A096FF
:100740000CAD1DAD2EAD3FADA097601771078207B0
:10075000930708F0A5C06C960CAD1DAD2EAD3FAD56
:100760006C9768968CAD9DADAEADBFAD6897081720
:1007700019072A073B0708F4BBC12D960CAD1DAD28
:100780002EAD3FAD2D9725968CAD9DADAEADBFADD9
:100790002597081719072A073B0708F0BCC0C80CA3
:1007A000D91CEA1CFB1C9FC11092520210925102EC
:1007B000109250021092850010928400B09AF1E0DD
:1007C000F0936F0010928000F4E0AF2EA0928100B1
:1007D00000E010E00E944301AC010F5F1F4F043F97
:1007E00021E0120731F49BB134E093279BB900E07C
:1007F00010E080915002811104C04C3F83E0580703
:1008000048F320918400309185001092810010926D
:100810006F0060915102709152025A98809150027B
:100820008111ADCE4C3F534008F4A9CECB01B901A4
:1008300020E231E440E050E00E942107ECE4AE2EDB
:10084000E4E0BE2EC12CD12C2596ECACFDAC0EAD57
:100850001FAD2597AE18BF08C00AD10A76016701FF
:1008600000E010E078012296AFAE22972396BFAE4B
:1008700023972496CFAE24972596DFAE259726960C
:100880001FAE269727961FAE279728961FAE28974C
:1008900029961FAE29970E944E07C901DA0172CE30
:1008A0006C960CAD1DAD2EAD3FAD6C9768968CADC2
:1008B0009DADAEADBFAD6897081719072A073B0776
:1008C00008F4FBC02D960CAD1DAD2EAD3FAD2D97A0
:1008D00025968CAD9DADAEADBFAD25970817190718
:1008E0002A073B07C0F0C40CD51CE61CF71CB60158
:1008F000C701680D791D8A1D9B1D23E030E040E093
:1009000050E00E94F40669017A01C114D104E104A7
:10091000F10409F05EC05A986DA97EA98FA998AD1F
:10092000AE014B5D5F4F0E949A0169AD7AAD8BAD10
:100930009CADAE014B5E5F4F0E949A0121966CAD5B
:100940007DAD8EAD9FAD21972E964FAD2E972F96F4
:100950005FAD2F970E949A010E940B0642EB51E077
:1009600060E080E00E94BF064DEB51E062E080E075
:100970000E94BF06AE014B5D5F4F63E080E00E94C6
:10098000BF06AE014B5E5F4F64E080E00E94BF0691
:100990002E964FAD2E972F965FAD2F9765E080E096
:1009A0000E94BF064CEC51E067E080E00E94BF0669
:1009B00086E00E946B015B9A9FEFABE7B2E9915032
:1009C000A040B040E1F700C000005B980E948401A5
:1009D00067C02E964FAD2E972F965FAD2F97B6011D
:1009E000C7010E949A01E0E1CE16E7E2DE06E104CB
:1009F000F10488F002E711E0F1E8CF16F6E9DF062E
:100A0000F8E9EF06F10468F002E611E031E06096E3
:100A10003FAF609706C001E511E021E060962FAF7F
:100A200060970E940B0640E051E060E080E00E9489
:100A3000BF064CED51E062E080E00E94BF062E96BA
:100A40004FAD2E972F965FAD2F9763E080E00E9409
:100A5000BF0660964FAD6097411531F1A80165E082
:100A600080E00E94BF0646EE51E066E080E00E9412
:100A7000BF065A9883E00E946B015B9A43E052E004
:100A800067E080E00E94BF065FEF85EA9EE051507C
:100A900080409040E1F700C000000E9484015B9814
:100AA0005A9A0E94510101CD47EF51E065E080E084
:100AB0000E94BF065B985A9AE1CF2D960CAD1DADF2
:100AC0002EAD3FAD2D9725968CAD9DADAEADBFAD96
:100AD0002597081719072A073B0708F01CCFC40CF5
:100AE000D51CE61CF71CF694E794D794C7940DCF59
:100AF0002D96CCACDDACEEACFFAC2D9725960CADB5
:100B00001DAD2EAD3FAD2597C016D106E206F3060A
:100B100008F401CF6201730142CE5A980E940B067D
:100B200044E152E061E080E00E94BF0642E252E010
:100B300063E080E00E94BF0640E352E064E080E0B2
:100B40000E94BF0640E452E066E080E00E94BF06DB
:100B500085E00E946B015B9A1FEF27EA31E6115096
:100B600020403040E1F72FCF1092B9008CE0809305
:100B7000B80084E08093BC00089594EA9093BC0090
:100B80009091BC0097FFFCCF9091B900987F98306E
:100B900011F0903189F48093BB0084E88093BC000D
:100BA0008091BC0087FFFCCF9091B900987F81E0D5
:100BB000983119F480E0089581E0089584E98093E4
:100BC000BC008091BC0084FDFCCF08958093BB00E5
:100BD00084E88093BC008091BC0087FFFCCF90919B
:100BE000B900987F81E0983209F480E00895CF93AE
:100BF000DF930F92CDB7DEB7898388E70E94BD05EA
:100C000080E00E94E60589810E94E6050F90DF9151
:100C1000CF910C94DE05CF93DF9381E20E94F7051C
:100C200080E00E94F7058FE70E94F70582E20E94AC
:100C3000F70580E00E94F70587E00E94F70588E746
:100C40000E94BD0580E40E94E605C0E0D4E080E09B
:100C50000E94E6052197D9F7DF91CF910C94DE052C
:100C60008EEA0E94F70585ED0E94F70580E80E9454
:100C7000F70588EA0E94F7058FE30E94F70583EDE8
:100C80000E94F70580E00E94F70580E40E94F705C6
:100C90008DE80E94F70584E10E94F70580E20E943A
:100CA000F70580E00E94F70581EA0E94F70588ECCD
:100CB0000E94F7058AED0E94F70582E10E94F70580
:100CC00081E80E94F7058FEC0E94F70589ED0E94EC
:100CD000F70581EF0E94F7058BED0E94F70580E490
:100CE0000E94F70584EA0E94F70586EA0E94F7054C
:100CF0008FEA0E94F7050C940B06CF93DF9300D088
:100D0000CDB7DEB789836A8381E20E94F7058981C6
:100D10000E94F7058FE70E94F70582E20E94F7051F
:100D20008A810E94F70587E00F900F90DF91CF91A5
:100D30000C94F7051F93CF93DF93C82F88E70E9489
:100D4000BD0580E40E94E605C0320CF4C0E2C0524A
:100D500085E0C802E0011124C859DF4F15E0FE010B
:100D600084910E94E605115021961111F8CF80E080
:100D70000E94E605DF91CF911F910C94DE05CF9381
:100D8000DF9300D000D0CDB7DEB749835A83982FC8
:100D9000990F890F880F0E947D0629812B833A8144
:100DA0003C83EB81FC818081811107C00F900F9003
:100DB0000F900F90DF91CF910895EB81FC813196D8
:100DC000EB83FC830E949A06ECCFA29FB001B39FF5
:100DD000C001A39F700D811D1124911DB29F700D44
:100DE000811D1124911D0895A1E21A2EAA1BBB1B7F
:100DF000FD010DC0AA1FBB1FEE1FFF1FA217B307E7
:100E0000E407F50720F0A21BB30BE40BF50B661FFC
:100E1000771F881F991F1A9469F7609570958095C0
:100E200090959B01AC01BD01CF0108950E94E5069C
:100E3000A59F900DB49F900DA49F800D911D11242E
:100E40000895E894DF93CF93FC01DB010E94E5064F
:100E50007F936F93E9019A01AC01BF93AF933F93E6
:100E60002F93DF010E94E50626F46C1B7D0B820B9D
:100E7000930B9E01EB01FC010E94AB07AF91BF9168
:100E80002F913F910E94AB07BE01CF01F9012F9135
:100E90003F91CF91DF910895689401C0E8948F92BB
:100EA0009F92CF93DF930E945A07DF91CF919F903B
:100EB0008F90089588249924F401E401B0E49F936D
:100EC000AA279A158B049C04ED05FE05CF05D007D3
:100ED000A10798F4AD2FDC2FCF2FFE2FE92D982CF2
:100EE000892E982F872F762F652F542F432F322F3F
:100EF0002227B85031F7BF9127C01B2EBF91BB27C7
:100F0000220F331F441F551F661F771F881F991F0D
:100F1000881C991CEE1FFF1FCC1FDD1FAA1FBB1FC3
:100F20008A149B04EC05FD05CE05DF05A007B1077B
:100F300048F08A189B08EC09FD09CE09DF09A00BCF
:100F4000B10B21601A94E1F62EF49401AF01BE01B9
:100F5000CD01000C08950E94E506460F571FC81FDB
:100F6000D91F08F431960895AEE0B0E0EAEBF7E05F
:100F70000C948A0A86E08C832B893C8929833A83E6
:100F80008FEF9FE78D839E83AE01495E5F4F6D8932
:100F90007E89CE0101960E94D807EF81F8852B89C2
:100FA0003C89E20FF31F10822E96E2E00C94A60A11
:100FB000ACE0B0E0EEEDF7E00C947D0A5C016B0173
:100FC0007A01FC0116821782838181FFD3C12AE056
:100FD000522EF5012381F60123FD859123FF819196
:100FE0006F01811509F42CC1853239F423FD9591E7
:100FF00023FF91916F01953229F4B50190E00E9491
:10100000D309E7CF30E0712C00E010E0103210F58A
:101010009B32C9F050F49032B9F09332C9F09E324D
:1010200061F516FD0DC1106405C09D3279F0903355
:1010300099F41160F60123FD959123FF91916F01C1
:101040009111E4CF23C012601460F4CF1860F2CF86
:101050001061F0CF17FD1AC080ED890F8A30F8F6C5
:1010600016FF05C0759C800D1124782EE3CF059DD9
:10107000800D1124082F1062DDCF9C3611F410680A
:10108000D9CF9C3409F440C09836A1F2892F8F7DC6
:1010900085548330D8F1933609F45FC0933709F44F
:1010A0006AC0933509F476C0943619F0993609F080
:1010B000A2C0F70117FF98C0619171918191919140
:1010C0007F011F7697FF03C00E94720A10682AE012
:1010D00030E04E014FEF841A940AA4010E94140AD2
:1010E000682E681816FFD2C0812F8E7F671408F013
:1010F000CCC014FF1DC112FD11C11E7E972C812F83
:10110000867809F4CEC00FC131E094CF311509F1D2
:10111000F8E0EF0EF11C8FE3898391E0692E712CCA
:101120004E018FEF881A980A1F7713FD04C06016CE
:10113000710408F43FC06114710409F042C0011544
:1011400009F447CFB50180E290E00E94D309015035
:10115000F6CF44E0E40EF11CDECFF70180818983F5
:10116000F2E0EF0EF11C81E0682E712C4E014FEF82
:10117000841A940AD9CFF701819091907F01672D4D
:1011800070E016FD02C06FEF7FEFC4010E94C80936
:101190003C01CACFF701819091907F01672D70E0EB
:1011A00016FD02C06FEF7FEFC4010E94BD093C0134
:1011B0001068BBCFB50180E290E00E94D3090150D6
:1011C000B6CFF40117FD859117FF81914F01B5014D
:1011D00090E00E94D30981E0011101C080E0081B6A
:1011E000F1E06F1A7108A7CF61917191872F880F75
:1011F000880B982F65CF9537C9F41F7E1C872AE08E
:1012000030E0FC85F7FF3BC0F7016191719181915E
:1012100091917F014E014FEF841A940AA4010E941C
:10122000140A682E68181C851F775CCF812F897F70
:101230008C87903799F058F49835B9F09F36E1F0E3
:10124000F501868197812C96EFE00C94990A9837E6
:10125000B9F714FD06C020E130E0D3CF9C85906142
:101260009C87EC85E460EC87F6CF14FF02C0166023
:101270001C8720E132E0C5CF28E030E0C2CFF70183
:101280006191719180E090E0C4CF182F962C14FFEB
:1012900036CFFE01E60DF11D8081803309F041C09B
:1012A000197E13FD0EC010FF4FC0762C901618F457
:1012B000700E7918902E802F8919091508F480E096
:1012C000980E901608F042C0091914FF41C0B501EC
:1012D00080E390E00E94D30912FF09C088E590E006
:1012E00011FD02C088E790E0B5010E94D3096714A0
:1012F000D0F14E018FEF881A980A6A94FE01329657
:10130000E60DF11D3F01F30182913F01B50190E02F
:101310000E94D30968147904B1F711CF972C182FC4
:10132000B8CF12FD02C09394BCCF93949394B9CFDD
:10133000972C182FE4CEB50180E290E00E94D309EB
:1013400083948016C0F3B7CF892CFBCF00E0BDCFCC
:10135000812F867861F280E211FD8BE217FD8DE22C
:10136000B50190E0C2CFB50180E390E00E94D309BF
:101370007A94BDCF8FEF9FEF66CFFC01059061504F
:1013800070400110D8F7809590958E0F9F1F08959B
:10139000FC016150704001900110D8F78095909544
:1013A0008E0F9F1F0895A3E0B0E0E9EDF9E00C94E3
:1013B000890A182F99836A837B83DB0113968C91AA
:1013C00081FD09C01FEFBFEFB983812F998123965B
:1013D000E3E00C94A50A82FF1BC0EA81FB81268111
:1013E0003781848195812817390754F40190F08161
:1013F000E02DCF010196AA81BB818D939D9310832F
:10140000EA81FB8186819781019686839783DDCF70
:10141000AA81BB811896ED91FD911A97BD01812F8C
:101420000995892B69F3CECFFA01AA27283051F10B
:10143000203181F1E8946F936E7F6E5F7F4F8F4F05
:101440009F4FAF4FB1E03ED0B4E03CD0670F781F64
:10145000891F9A1FA11D680F791F8A1F911DA11D49
:101460006A0F711D811D911DA11D20D009F4689482
:101470003F912AE0269F11243019305D3193DEF62A
:10148000CF010895462F4770405D4193B3E00FD0E0
:10149000C9F7F6CF462F4F70405D4A3318F0495DCB
:1014A00031FD4052419302D0A9F7EACFB4E0A695AE
:1014B0009795879577956795BA95C9F700976105D0
:1014C000710508959B01AC010A2E06945795479526
:1014D00037952795BA95C9F7620F731F841F951F1B
:1014E000A01D089590958095709561957F4F8F4FC1
:1014F0009F4F08952F923F924F925F926F927F92EB
:101500008F929F92AF92BF92CF92DF92EF92FF9213
:101510000F931F93CF93DF93CDB7DEB7CA1BDB0BBF
:101520000FB6F894DEBF0FBECDBF09942A88398864
:1015300048885F846E847D848C849B84AA84B9846B
:10154000C884DF80EE80FD800C811B81AA81B98177
:10155000CE0FD11D0FB6F894DEBF0FBECDBFED018B
:061560000895F894FFCF8E
:10156600204B617054657374657220563200537453
:10157600617475733A204265726569740044555406
:1015860020616E7363686C69657373656E0053548E
:101596004152542064727565636B656E00256C75E7
:1015A600206E4600256C752E2530326C75207546EA
:1015B600005761726E756E673A203C203130754671
:1015C60021005761726E756E673A203E2031306D8C
:1015D600462100486F636866616872656E2E2E2E1E
:1015E60000496E697469616C6973696572756E67C5
:1015F600004D657373756E67202575202F20257540
:10160600202E2E2E004269747465207761727465EF
:101616006E002A2A204641494C202A2A0057657224
:101626007465207374726575656E3A004B6F6E74DF
:10163600616B74207072756566656E0045726765CC
:10164600626E69733A00417573736572682E204243
:1016560065726569636800426572656963683A2008
:101666004F4B0053544152543D6E6575206D657362
:1016760073656E002A2A2054494D454F5554202A39
:101686002A004B65696E20445554206F64657200CC
:101696003C2031302075462065726B616E6E740099
:1016A600506F6C756E67207072756566656E210089
:00000001FF
