:100000000C9424010C9439010C9439010C9439019D
:100010000C9439010C9439010C9439010C94390178
:100020000C9439010C9439010C9439010C94390168
:100030000C9439010C9439010C9439010C94390158
:100040000C9439010C9439010C9439010C94390148
:100050000C9439010C9439010C9439010C94390138
:100060000C9439010C943901000000000000005F7D
:1000700000000007000700147F147F14242A7F2A41
:10008000122313086462364955225000050300000C
:10009000001C2241000041221C00082A1C2A0808DA
:1000A000083E0808005030000008080808080060F2
:1000B00060000020100804023E5149453E00427F86
:1000C000400042615149462141454B311814127F8D
:1000D0001027454545393C4A494930017109050316
:1000E0003649494936064949291E0036360000007E
:1000F000563600000008142241141414141441222E
:100100001408000201510906324979413E7E11115D
:10011000117E7F494949363E414141227F4141227A
:100120001C7F494949417F090909013E4149497AF2
:100130007F0808087F00417F41002040413F017F48
:10014000081422417F404040407F0204027F7F0428
:1001500008107F3E4141413E7F090909063E415159
:10016000215E7F09192946464949493101017F012C
:10017000013F4040403F1F2040201F3F4038403F4C
:100180006314081463070870080761514945430068
:100190007F41410002040810200041417F00040219
:1001A0000102044040404040000102040020545439
:1001B00054787F48444438384444442038444448C0
:1001C0007F3854545418087E090102085454543C92
:1001D0007F0804047800447D40002040443D007FB7
:1001E0001028440000417F40007C041804787C08FB
:1001F00004047838444444387C1414140808141453
:10020000187C7C080404084854545420043F44409B
:10021000203C4040207C1C2040201C3C4030403C86
:1002200044281028440C5050503C4464544C440022
:100230000836410000007F00000041360800080831
:100240002A1C08081C2A080811241FBECFEFD8E07A
:10025000DEBFCDBF16E0A0E0B1E0E6E8F7E102C006
:1002600005900D92A43BB107D9F70E9417040C9496
:10027000C10B0C94000080EC80937C0087E8809395
:100280007A0080917A00806480937A0080917A006D
:1002900086FDFCCF08952FEF86E791E02150804046
:1002A0009040E1F700C000003299FECF2FEF86E7C3
:1002B00091E0215080409040E1F700C00000329B67
:1002C000FECF2FEF86E791E0215080409040E1F78C
:1002D00000C0000008951092B9008CE08093B8002F
:1002E00084E08093BC00089594EA9093BC009091C0
:1002F000BC0097FFFCCF9091B900987F983011F027
:10030000903181F48093BB0084E88093BC0080919D
:10031000BC0087FFFCCF9091B900987F81E09831B5
:1003200019F0089581E0089580E0089584E98093AC
:10033000BC008091BC0084FDFCCF08958093BB007D
:1003400084E88093BC008091BC0087FFFCCF909133
:10035000B900987F81E0983209F0089580E008950F
:10036000CF93DF9388E70E94740180E00E949E0192
:1003700081E20E949E010E94960188E70E9474011A
:1003800080E00E949E0180E00E949E010E949601F2
:1003900088E70E94740180E00E949E018FE70E941E
:1003A0009E010E94960188E70E94740180E00E94ED
:1003B0009E0182E20E949E010E94960188E70E94AF
:1003C000740180E00E949E0180E00E949E010E94D4
:1003D000960188E70E94740180E00E949E0187E0F8
:1003E0000E949E010E94960188E70E94740180E4A9
:1003F0000E949E01C0E0D4E080E00E949E0121970F
:10040000D9F7DF91CF910C94960188E70E9474018F
:1004100080E00E949E018EEA0E949E010E94960149
:1004200088E70E94740180E00E949E0185ED0E9491
:100430009E010E94960188E70E94740180E00E945C
:100440009E0180E80E949E010E94960188E70E941A
:10045000740180E00E949E0188EA0E949E010E9431
:10046000960188E70E94740180E00E949E018FE35C
:100470000E949E010E94960188E70E94740180E01C
:100480000E949E0183ED0E949E010E94960188E7D2
:100490000E94740180E00E949E0180E00E949E0103
:1004A0000E94960188E70E94740180E00E949E01EC
:1004B00080E40E949E010E94960188E70E947401D8
:1004C00080E00E949E018DE80E949E010E9496019C
:1004D00088E70E94740180E00E949E0184E10E94EE
:1004E0009E010E94960188E70E94740180E00E94AC
:1004F0009E0180E20E949E010E94960188E70E9470
:10050000740180E00E949E0180E00E949E010E9492
:10051000960188E70E94740180E00E949E0181EAB2
:100520000E949E010E94960188E70E94740180E06B
:100530000E949E0188EC0E949E010E94960188E71D
:100540000E94740180E00E949E018AED0E949E013B
:100550000E94960188E70E94740180E00E949E013B
:1005600082E10E949E010E94960188E70E94740128
:1005700080E00E949E0181E80E949E010E949601F7
:1005800088E70E94740180E00E949E018FEC0E9427
:100590009E010E94960188E70E94740180E00E94FB
:1005A0009E0189ED0E949E010E94960188E70E94AB
:1005B000740180E00E949E0181EF0E949E010E94D2
:1005C000960188E70E94740180E00E949E018BEDF5
:1005D0000E949E010E94960188E70E94740180E0BB
:1005E0000E949E0180E40E949E010E94960188E77D
:1005F0000E94740180E00E949E0184EA0E949E0194
:100600000E94960188E70E94740180E00E949E018A
:1006100086EA0E949E010E94960188E70E9474016A
:1006200080E00E949E018FEA0E949E010E94960136
:100630000C94B001CF93DF9300D0CDB7DEB78983A0
:100640006A8388E70E94740180E00E949E0181E233
:100650000E949E010E94960188E70E94740180E03A
:100660000E949E0189810E949E010E94960188E756
:100670000E94740180E00E949E018FE70E949E010B
:100680000E94960188E70E94740180E00E949E010A
:1006900082E20E949E010E94960188E70E947401F6
:1006A00080E00E949E018A810E949E010E94960124
:1006B00088E70E94740180E00E949E0187E00E940A
:1006C0009E010F900F90DF91CF910C9496011F9394
:1006D000CF93DF93C82F88E70E94740180E40E94C3
:1006E0009E018C2FC0320CF480E28052982F990F1B
:1006F000990BEC01CC0FDD1FCC0FDD1FC80FD91FEC
:10070000C859DF4F15E0FE0184910E949E011150EF
:1007100021961111F8CF80E00E949E01DF91CF91C8
:100720001F910C949601EF92FF921F93CF93DF934A
:10073000C82FD62F7A0188E70E94740180E00E94BA
:100740009E0181E20E949E010E94960188E70E941C
:10075000740180E00E949E018C2F880F8C0F880FFF
:100760000E949E010E94960188E70E94740180E029
:100770000E949E018FE70E949E010E94960188E7D9
:100780000E94740180E00E949E0182E20E949E010C
:100790000E94960188E70E94740180E00E949E01F9
:1007A0008D2F0E949E010E94960188E70E9474018D
:1007B00080E00E949E0187E00E949E010E949601B7
:1007C000F701C081C11569F1FFEFEF1AFF0A88E751
:1007D0000E94740180E40E949E018C2FC0320CF4B0
:1007E00080E28052982F990F990BEC01CC0FDD1FFE
:1007F000CC0FDD1FC80FD91FC859DF4F15E0FE0110
:1008000084910E949E01115021961111F8CF80E031
:100810000E949E010E949601F701C1917F01C111C2
:10082000D6CFDF91CF911F91FF90EF900895CDB774
:10083000DEB766970FB6F894DEBF0FBECDBF8AB1A4
:100840008C608AB9219A87B18A7F87B9429A409889
:100850005A985B9829980E943B010E946B010E9464
:1008600005025A985B9829980E94B00140E051E037
:1008700060E080E00E9493034EE051E061E080E0A0
:100880000E9493034EE151E063E080E00E949303F5
:100890004AE251E064E080E00E9493034AE351E0C1
:1008A00065E080E00E9493034BE451E067E080E064
:1008B0000E9493030E944B010E94B0014CE551E05D
:1008C00060E080E00E9493034FE651E062E080E048
:1008D0000E9493034CE751E063E080E00E949303A1
:1008E0004BE851E065E080E00E9493034AE951E063
:1008F00066E080E00E9493034EEA51E067E080E00A
:100900000E9493035A9A0E944B015A980E94B00188
:1009100040EC51E060E080E00E94930343ED51E041
:1009200062E080E00E9493034CE751E063E080E0E6
:100930000E9493034FED51E065E080E00E94930335
:1009400043EF51E066E080E00E9493034EEA51E0FD
:1009500067E080E00E9493035B9A0E944B015B98E2
:100960000E94B00145E052E060E080E00E94930305
:1009700046E152E062E080E00E94930344E252E0EC
:1009800063E080E00E94930345E352E065E080E08D
:100990000E94930349E452E066E080E00E949303E2
:1009A0004EEA51E067E080E00E9493035A9A5B9A16
:1009B0000E944B015A985B980E94B0014FE552E0AB
:1009C00060E080E00E94930343E752E062E080E051
:1009D0000E94930345E852E063E080E00E949303A5
:1009E00044E952E065E080E00E94930348EA52E067
:1009F00066E080E00E9493032FEF3DE389E42150FD
:100A000030408040E1F700C0000088E70E94740198
:100A100080E00E949E0185EA0E949E010E9496014C
:100A20000E944B0188E70E94740180E00E949E01B1
:100A300084EA0E949E010E9496010E94B00149EB47
:100A400052E060E080E00E94930349EC52E062E0F3
:100A500080E00E94930344ED52E063E080E00E9456
:100A6000930344EE52E064E080E00E94930340EF81
:100A700052E065E080E00E94930340E053E066E0CE
:100A800080E00E9493034EEA51E067E080E00E941C
:100A900093030E944B010E94B0014CE053E060E0E0
:100AA00080E00E9493034EE153E062E080E00E9408
:100AB00093034AE253E063E080E00E94930348E33B
:100AC00053E065E080E00E949303E12CF12C8E015D
:100AD0000F5F1F4F31E4A32E33E0B32EFF92EF924E
:100AE000BF92AF921F930F930E94C408A80165E0C4
:100AF00089E00E9493030F900F900F900F900F903A
:100B00000F9088E99AE3EFE9FFE03197F1F700C031
:100B10000000329BA1C20197B1F74AE453E067E0BD
:100B200080E00E9493033FEF8DE399E431508040D1
:100B30009040E1F700C000000E94B0014EE653E093
:100B400060E080E00E94930341E853E061E080E0D0
:100B50000E94930345E953E063E080E00E94930321
:100B600041EA53E064E080E00E94930344EB53E0E9
:100B700065E080E00E94930343EC53E066E080E090
:100B80000E9493034EEA51E067E080E00E949303E5
:100B90000E944B010E94B0014EE653E060E080E00D
:100BA0000E94930341ED53E062E080E00E949303D2
:100BB00040EE53E063E080E00E9493034FEE53E089
:100BC00064E080E00E9493034CEF53E065E080E036
:100BD0000E9493034DE054E066E080E00E9493039E
:100BE0004EEA51E067E080E00E9493030E944B01CF
:100BF0000E94B0014EE653E060E080E00E94930363
:100C000040E254E062E080E00E9493034FE254E04F
:100C100063E080E00E9493034DE354E064E080E0F1
:100C20000E9493034EE454E065E080E00E94930349
:100C300042E654E066E080E00E94930345E754E01A
:100C400067E080E00E9493030E944B010E94B00184
:100C500049E854E060E080E00E9493034DE954E0ED
:100C600062E080E00E9493034DEA54E064E080E09B
:100C70000E9493034EEB54E065E080E00E949303F2
:100C800041ED54E066E080E00E94930344EE54E0BE
:100C900067E080E00E9493039FEF892E93E0992EF6
:100CA000A12CB12C27EFE22E24E0F22E98E020E0D8
:100CB00030E080917A00806480937A0080917A009D
:100CC00086FDFCCF4091780050917900240F351FAC
:100CD000915079F73695279536952795369527952E
:100CE0003F932F93ACE4B4E00E9493089401A501D4
:100CF0000E94A2083F932F93FF92EF921F930F93AE
:100D00000E94C408A80163E080E00E949303EFEF13
:100D1000F2E527E0E150F0402040E1F700C000009C
:100D20000FB6F894DEBF0FBECDBF3299BFCF0E9481
:100D30004B010E94B00149E055E060E080E00E9474
:100D4000930349E155E062E080E00E94930348E2AA
:100D500055E063E080E00E9493034BE355E064E0DC
:100D600080E00E9493039FEFE9E6F8E19150E040B4
:100D7000F040E1F700C0000080E480937C0087E849
:100D800080937A008FE39CE90197F1F700C000009F
:100D900080917A00806480937A0080917A0086FD49
:100DA000FCCF80917C00807F8E6080937C00EFE898
:100DB000F1E03197F1F700C0000080917A00806483
:100DC00080937A0080917A0086FDFCCFE0907800D5
:100DD000F09079000E943B01E114F10409F473C121
:100DE000970140E050E064EB7BE281E190E00E94FB
:100DF000A208490179010E94B00149E055E060E094
:100E000080E00E949303F5E98F1AF1E19F0A27EE33
:100E1000821623E0920608F05EC1FF92EF928BE407
:100E200095E09F938F931F930F930E94C408A8018E
:100E300062E080E00E94930348E555E063E080E0D3
:100E40000E9493034BE655E064E080E00E94930328
:100E500048E755E065E080E00E9493030F900F9013
:100E60000F900F900F900F904EEA51E067E080E0F6
:100E70000E9493030E944B010E94B00141EC55E097
:100E800060E080E00E94930342ED55E062E080E084
:100E90000E94930343EE55E063E080E00E949303D9
:100EA00046EF55E064E080E00E94930343E056E0A3
:100EB00065E080E00E94930344E156E066E080E054
:100EC0000E9493033FEF8DE399E4315080409040BE
:100ED000E1F700C00000299AEFEFF1EE24E0E150C5
:100EE000F0402040E1F700C0000080917A0080646B
:100EF00080937A0080917A0086FDFCCF2091780063
:100F000030917900ACE4B4E00E9493082FEF33E015
:100F100040E050E00E94A20879010E94B00141EC3B
:100F200055E060E080E00E94930343E256E062E017
:100F300080E00E94930344E356E063E080E00E9477
:100F40009303FF92EF9285E496E09F938F931F9314
:100F50000F930E94C408A80165E080E00E949303FB
:100F600044E156E066E080E00E9493030F900F900A
:100F70000F900F900F900F9034E6E316F10408F0F5
:100F800090C04BE655E067E080E00E9493035A9AD8
:100F90008FEF97E8E3E181509040E040E1F700C037
:100FA00000005A9829988FEF99E6E8E18150904027
:100FB000E040E1F700C000004EEA51E067E080E069
:100FC0000E9493030E944B015A9A0E94B00140E094
:100FD00051E060E080E00E94930345E656E062E065
:100FE00080E00E94930340E756E063E080E00E94C7
:100FF00093034FE756E065E080E00E94930342E9E7
:1010000056E066E080E00E94930342EA56E067E023
:1010100080E00E94930383E05A98FFEF22E537E0D7
:10102000F15020403040E1F700C000005A9A9FEF95
:10103000E2E5F7E09150E040F040E1F700C0000049
:10104000815051F72FEF33ED80E321503040804045
:10105000E1F700C00000F6CF0E944B01FFEFEF1A4E
:10106000FF0A23E0E216F10409F038CD4DE553E024
:1010700067E080E00E9493035A9AEFEFFBE42DE1D2
:10108000E150F0402040E1F700C000005A983FEFE7
:1010900087E893E1315080409040E1F700C00000C4
:1010A0004BCD41E556E067E080E00E9493035B9AF8
:1010B000FFEF27E833E1F15020403040E1F700C076
:1010C00000005B986FCF0E94B00149E055E060E0FE
:1010D00080E00E949303FF92EF928BE895E09F934C
:1010E0008F931F930F930E94C408A80162E080E0D1
:1010F0000E94930348E555E063E080E00E9493037B
:101100004CE955E064E080E00E9493034FEA55E02B
:1011100065E080E00E9493030F900F900F900F9076
:101120000F900F90A1CEA29FB001B39FC001A39FCB
:10113000700D811D1124911DB29F700D811D112410
:10114000911D0895A1E21A2EAA1BBB1BFD010DC023
:10115000AA1FBB1FEE1FFF1FA217B307E407F50767
:1011600020F0A21BB30BE40BF50B661F771F881F43
:10117000991F1A9469F760957095809590959B01D9
:10118000AC01BD01CF010895AEE0B0E0EAECF8E0BB
:101190000C949A0B86E08C832B893C8929833A83B3
:1011A0008FEF9FE78D839E83AE01495E5F4F6D8910
:1011B0007E89CE0101960E94E808EF81F8852B898F
:1011C0003C89E20FF31F10822E96E2E00C94B60BDE
:1011D000ACE0B0E0EEEEF8E00C948D0B5C016B013E
:1011E0007A01FC0116821782838181FFD3C12AE034
:1011F000522EF5012381F60123FD859123FF819174
:101200006F01811509F42CC1853239F423FD9591C4
:1012100023FF91916F01953229F4B50190E00E946E
:10122000E30AE7CF30E0712C00E010E0103210F557
:101230009B32C9F050F49032B9F09332C9F09E322B
:1012400061F516FD0DC1106405C09D3279F0903333
:1012500099F41160F60123FD959123FF91916F019F
:101260009111E4CF23C012601460F4CF1860F2CF64
:101270001061F0CF17FD1AC080ED890F8A30F8F6A3
:1012800016FF05C0759C800D1124782EE3CF059DB7
:10129000800D1124082F1062DDCF9C3611F41068E8
:1012A000D9CF9C3409F440C09836A1F2892F8F7DA4
:1012B00085548330D8F1933609F45FC0933709F42D
:1012C0006AC0933509F476C0943619F0993609F05E
:1012D000A2C0F70117FF98C061917191819191911E
:1012E0007F011F7697FF03C00E94820B10682AE0DF
:1012F00030E04E014FEF841A940AA4010E94240B9F
:10130000682E681816FFD2C0812F8E7F671408F0F0
:10131000CCC014FF1DC112FD11C11E7E972C812F60
:10132000867809F4CEC00FC131E094CF311509F1B0
:10133000F8E0EF0EF11C8FE3898391E0692E712CA8
:101340004E018FEF881A980A1F7713FD04C06016AC
:10135000710408F43FC06114710409F042C0011522
:1013600009F447CFB50180E290E00E94E30A015002
:10137000F6CF44E0E40EF11CDECFF70180818983D3
:10138000F2E0EF0EF11C81E0682E712C4E014FEF60
:10139000841A940AD9CFF701819091907F01672D2B
:1013A00070E016FD02C06FEF7FEFC4010E94D80A03
:1013B0003C01CACFF701819091907F01672D70E0C9
:1013C00016FD02C06FEF7FEFC4010E94CD0A3C0101
:1013D0001068BBCFB50180E290E00E94E30A0150A3
:1013E000B6CFF40117FD859117FF81914F01B5012B
:1013F00090E00E94E30A81E0011101C080E0081B37
:10140000F1E06F1A7108A7CF61917191872F880F52
:10141000880B982F65CF9537C9F41F7E1C872AE06B
:1014200030E0FC85F7FF3BC0F7016191719181913C
:1014300091917F014E014FEF841A940AA4010E94FA
:10144000240B682E68181C851F775CCF812F897F3D
:101450008C87903799F058F49835B9F09F36E1F0C1
:10146000F501868197812C96EFE00C94A90B9837B3
:10147000B9F714FD06C020E130E0D3CF9C85906120
:101480009C87EC85E460EC87F6CF14FF02C0166001
:101490001C8720E132E0C5CF28E030E0C2CFF70161
:1014A0006191719180E090E0C4CF182F962C14FFC9
:1014B00036CFFE01E60DF11D8081803309F041C079
:1014C000197E13FD0EC010FF4FC0762C901618F435
:1014D000700E7918902E802F8919091508F480E074
:1014E000980E901608F042C0091914FF41C0B501CA
:1014F00080E390E00E94E30A12FF09C088E590E0D3
:1015000011FD02C088E790E0B5010E94E30A67146C
:10151000D0F14E018FEF881A980A6A94FE01329634
:10152000E60DF11D3F01F30182913F01B50190E00D
:101530000E94E30A68147904B1F711CF972C182F91
:10154000B8CF12FD02C09394BCCF93949394B9CFBB
:10155000972C182FE4CEB50180E290E00E94E30AB8
:1015600083948016C0F3B7CF892CFBCF00E0BDCFAA
:10157000812F867861F280E211FD8BE217FD8DE20A
:10158000B50190E0C2CFB50180E390E00E94E30A8C
:101590007A94BDCF8FEF9FEF66CFFC01059061502D
:1015A00070400110D8F7809590958E0F9F1F089579
:1015B000FC016150704001900110D8F78095909522
:1015C0008E0F9F1F0895A3E0B0E0E9EEFAE00C94BF
:1015D000990B182F99836A837B83DB0113968C9177
:1015E00081FD09C01FEFBFEFB983812F9981239639
:1015F000E3E00C94B50B82FF1BC0EA81FB812681DE
:101600003781848195812817390754F40190F0813E
:10161000E02DCF010196AA81BB818D939D9310830C
:10162000EA81FB8186819781019686839783DDCF4E
:10163000AA81BB811896ED91FD911A97BD01812F6A
:101640000995892B69F3CECFFA01AA27283051F1E9
:10165000203181F1E8946F936E7F6E5F7F4F8F4FE3
:101660009F4FAF4FB1E03ED0B4E03CD0670F781F42
:10167000891F9A1FA11D680F791F8A1F911DA11D27
:101680006A0F711D811D911DA11D20D009F4689460
:101690003F912AE0269F11243019305D3193DEF608
:1016A000CF010895462F4770405D4193B3E00FD0BE
:1016B000C9F7F6CF462F4F70405D4A3318F0495DA9
:1016C00031FD4052419302D0A9F7EACFB4E0A6958C
:1016D0009795879577956795BA95C9F700976105AE
:1016E000710508959B01AC010A2E06945795479504
:1016F00037952795BA95C9F7620F731F841F951FF9
:10170000A01D089590958095709561957F4F8F4F9E
:101710009F4F08952F923F924F925F926F927F92C8
:101720008F929F92AF92BF92CF92DF92EF92FF92F1
:101730000F931F93CF93DF93CDB7DEB7CA1BDB0B9D
:101740000FB6F894DEBF0FBECDBF09942A88398842
:1017500048885F846E847D848C849B84AA84B98449
:10176000C884DF80EE80FD800C811B81AA81B98155
:10177000CE0FD11D0FB6F894DEBF0FBECDBFED0169
:061780000895F894FFCF6C
:10178600204B6170546573746572205632002A2AA4
:1017960020544553544D4F445553202A2A0054652E
:1017A6007374657420616C6C65004B6F6D706F6E41
:1017B600656E74656E2064657200506C6174696E46
:1017C600652065696E7A656C6E2E002D3E20425549
:1017D60054544F4E3A205374617274005445535416
:1017E60020312F31303A204C45442047524E004795
:1017F60072756E65204C454420443100736F6C6CE5
:10180600204C4555434854454E2E00536965687330
:1018160074206475207369653F004E696368743F80
:10182600202D3E204C6F747374656C6C65002D3EE4
:1018360020425554544F4E3A2077656974657200BC
:101846005445535420322F31303A204C45442052CF
:101856004F5400526F7465204C4544204432004E6C
:10186600696368743F202D3E20525F4C45442075C5
:101876006E64004C6F747374656C6C652070727561
:101886006566656E005445535420332F31303A2037
:101896004245494445004265696465204431202B30
:1018A60020443200736F6C6C656E206C65756368DE
:1018B60074656E2E00546573743A205472656962BD
:1018C600656E206265696465004C45442D50696EFD
:1018D600732067656E7567205374726F6D3F005491
:1018E60045535420342F31303A204F4C4544205034
:1018F600495800416C6C6520506978656C207765A5
:101906007264656E0065696E6765736368616C74A1
:1019160065742E004B65696E2064756E6B6C65721E
:1019260020466C65636B3F002D3E20416C6C652044
:10193600506978656C204F4B005445535420352F21
:1019460031303A20464F4E5400303132333435363A
:10195600373839004142434445464748494A4B4C8B
:101966004D4E4F00505152535455565758595A00E0
:101976006162636465666768696A6B6C6D6E6F0049
:10198600707172737475767778797A00544553540A
:1019960020362F31303A20425554544F4E0044726F
:1019A6007565636B652064656E00427574746F6E51
:1019B6002033206D616C21005A6165686C65723A4E
:1019C600002575202F203320200054494D454F55C2
:1019D6005421202D3E207765697465720042555466
:1019E600544F4E3A204F4B212020202020005445B2
:1019F600535420372F31303A2054455354504B54CA
:101A0600004D756C74696D6574657220616E6C65E8
:101A160067656E21004A545031205553425F355652
:101A2600002020536F6C6C3A20342E37352D352E1E
:101A3600323556004A545032202B35565F424F41BC
:101A46005244002020536F6C6C3A207E352E30565F
:101A5600004A545033204C4D3331375F4F555400B4
:101A6600536F6C6C206F686E65204455543A0020A5
:101A7600207E2B35565F424F415244004D697420FB
:101A8600445554202B204C6164656E3A0020204654
:101A960061656C6C74206175662030562061620049
:101AA6004A545034204D4541535F4E4F4445003D06
:101AB6002041546D656761204144433000536F6C8B
:101AC6006C206F6666656E3A207E306D56004D61FD
:101AD60078206D6573736261723A20313130306DF2
:101AE600560028696E7465726E6520312E31562057
:101AF60052656629002D3E20425554544F4E3A20D9
:101B06006C69766520414443005445535420382F70
:101B160031303A204A54503420414443004D454127
:101B2600535F4E4F4445206C6976653A004F6666B2
:101B3600656E2020202D3E207E30206D56004D61A2
:101B46007820414443202D3E2031313030206D56DF
:101B5600004B6F6E64656E7361746F72206C6164A6
:101B6600656E3F002D3E20425554544F4E3A20623A
:101B760065656E64656E00553D253475206D56208D
:101B8600207261773D253475005445535420392F12
:101B960031303A2041564343004D65737365204109
:101BA600564343207669610042616E646761702D19
:101BB6004D6574686F64652E2E2E002841546D6540
:101BC600676120696E7465726E2900415643432031
:101BD6003D202575206D5600536F6C6C3A203437C6
:101BE60035302D35323530206D56004572676562C9
:101BF6006E69733A204F4B00285553422D5370613E
:101C06006E6E756E672067757429004156434320D2
:101C16003D202575206D56202121210050727565C5
:101C260066656E3A205553422D4B6162656C0051D4
:101C36003120504D4F532C205553422D506F727406
:101C460000544553542031302F31303A44495343E0
:101C560048005465737465743A205132202B205223
:101C66003230004B65696E20445554212050423174
:101C76002048494748002D3E205132206C65697442
:101C86006574004D4541535F4E4F4445202D3E201F
:101C9600474E4400536F6C6C3A203C203130302064
:101CA6006D560044495343485F474154453A2048DE
:101CB600494748005132206C656974657420676530
:101CC60072616465004A5450343A202575206D5679
:101CD600005072756566656E3A2051322C20523975
:101CE6002C52323000414C4C45205445535453003D
:101CF600414247455343484C4F5353454E21004EAE
:101D0600616563687374657220536368726974747D
:101D16003A0046573120666C617368656E20756EB1
:101D260064006D657373656E212052657365743D3D
:041D36006E65750061
:00000001FF
