:100000000C9424010C9439010C9439010C9439019D
:100010000C9439010C9439010C9439010C94390178
:100020000C9439010C9439010C9439010C94390168
:100030000C9439010C9439010C9439010C94390158
:100040000C9439010C9439010C9439010C94390148
:100050000C9439010C9439010C9439010C94390138
:100060000C9439010C943901000000000000005F7D
:1000700000000007000700147F147F14242A7F2A41
:10008000122313086462364955225000050300000C
:10009000001C2241000041221C00082A1C2A0808DA
:1000A000083E0808005030000008080808080060F2
:1000B00060000020100804023E5149453E00427F86
:1000C000400042615149462141454B311814127F8D
:1000D0001027454545393C4A494930017109050316
:1000E0003649494936064949291E0036360000007E
:1000F000563600000008142241141414141441222E
:100100001408000201510906324979413E7E11115D
:10011000117E7F494949363E414141227F4141227A
:100120001C7F494949417F090909013E4149497AF2
:100130007F0808087F00417F41002040413F017F48
:10014000081422417F404040407F0204027F7F0428
:1001500008107F3E4141413E7F090909063E415159
:10016000215E7F09192946464949493101017F012C
:10017000013F4040403F1F2040201F3F4038403F4C
:100180006314081463070870080761514945430068
:100190007F41410002040810200041417F00040219
:1001A0000102044040404040000102040020545439
:1001B00054787F48444438384444442038444448C0
:1001C0007F3854545418087E090102085454543C92
:1001D0007F0804047800447D40002040443D007FB7
:1001E0001028440000417F40007C041804787C08FB
:1001F00004047838444444387C1414140808141453
:10020000187C7C080404084854545420043F44409B
:10021000203C4040207C1C2040201C3C4030403C86
:1002200044281028440C5050503C4464544C440022
:100230000836410000007F00000041360800080831
:100240002A1C08081C2A080811241FBECFEFD8E07A
:10025000DEBFCDBF16E0A0E0B1E0ECEFF3E102C0FD
:1002600005900D92A43BB107D9F70E946B010C9445
:10027000FC090C94000080EC80937C0087E880935C
:100280007A0080917A00806480937A0080917A006D
:1002900086FDFCCF08952FEF86E791E02150804046
:1002A0009040E1F700C000003299FECF2FEF86E7C3
:1002B00091E0215080409040E1F700C00000329B67
:1002C000FECF2FEF86E791E0215080409040E1F78C
:1002D00000C000000895CF93DF93CDB7DEB76697D7
:1002E0000FB6F894DEBF0FBECDBF8AB18C608AB95D
:1002F000219A87B18A7F87B9429A40985A985B9829
:1003000029980E943B010E94D1050E9447065A98F5
:100310005B9829980E94220640E051E060E080E06E
:100320000E94DC064EE051E061E080E00E94DC06C5
:100330004EE151E063E080E00E94DC064AE251E0D9
:1003400064E080E00E94DC064AE351E065E080E082
:100350000E94DC064BE451E067E080E00E94DC068E
:100360000E944B010E9422064CE551E060E080E0D3
:100370000E94DC064FE651E062E080E00E94DC066D
:100380004CE751E063E080E00E94DC064BE851E07E
:1003900065E080E00E94DC064AE951E066E080E02A
:1003A0000E94DC064EEA51E067E080E00E94DC0635
:1003B0005A9A0E944B015A980E94220640EC51E042
:1003C00060E080E00E94DC0643ED51E062E080E006
:1003D0000E94DC064CE751E063E080E00E94DC060E
:1003E0004FED51E065E080E00E94DC0643EF51E014
:1003F00066E080E00E94DC064EEA51E067E080E0C3
:100400000E94DC065B9A0E944B015B980E942206C8
:1004100045E052E060E080E00E94DC0646E152E008
:1004200062E080E00E94DC0644E252E063E080E0AB
:100430000E94DC0645E352E065E080E00E94DC06B5
:1004400049E452E066E080E00E94DC064EEA51E0BA
:1004500067E080E00E94DC065A9A5B9A0E944B019A
:100460005A985B980E9422064FE552E060E080E0D7
:100470000E94DC0643E752E062E080E00E94DC0676
:1004800045E852E063E080E00E94DC0644E952E087
:1004900065E080E00E94DC0648EA52E066E080E029
:1004A0000E94DC062FEF3DE389E42150304080407C
:1004B000E1F700C0000088E70E94DA0580E00E94B2
:1004C000030685EA0E9403060E94FB050E944B0179
:1004D00088E70E94DA0580E00E94030684EA0E9411
:1004E00003060E94FB050E94220649EB52E060E0F1
:1004F00080E00E94DC0649EC52E062E080E00E946D
:10050000DC0644ED52E063E080E00E94DC0644EE4D
:1005100052E064E080E00E94DC0640EF52E065E0DB
:1005200080E00E94DC0640E053E066E080E00E944C
:10053000DC064EEA51E067E080E00E94DC060E94A3
:100540004B010E9422064CE053E060E080E00E94F4
:10055000DC064EE153E062E080E00E94DC064AE205
:1005600053E063E080E00E94DC0648E353E065E08E
:1005700080E00E94DC06F12CE12C31E4C32E33E054
:10058000D32E8E010F5F1F4FFF92EF92DF92CF921B
:100590001F930F930E942407A80165E089E00E9441
:1005A000DC060F900F900F900F900F900F9088E93E
:1005B0009AE3EFE9FFE03197F1F700C000003299CC
:1005C00022C00E944B01FFEFEF1AFF0A23E0E21660
:1005D000F104D1F64DE553E067E080E00E94DC06CF
:1005E0005A9AEFEFFBE42DE1E150F0402040E1F7B3
:1005F00000C000005A983FEF87E893E131508040F7
:100600009040E1F70FC00197A1F64AE453E067E09C
:1006100080E00E94DC063FEF8DE399E4315080409A
:100620009040E1F700C000000E9422064EE653E031
:1006300060E080E00E94DC0641E853E061E080E099
:100640000E94DC0645E953E063E080E00E94DC069E
:1006500041EA53E064E080E00E94DC0644EB53E0B2
:1006600065E080E00E94DC0643EC53E066E080E059
:100670000E94DC064EEA51E067E080E00E94DC0662
:100680000E944B010E9422064EE653E060E080E0AB
:100690000E94DC0641ED53E062E080E00E94DC064F
:1006A00040EE53E063E080E00E94DC064FEE53E052
:1006B00064E080E00E94DC064CEF53E065E080E0FF
:1006C0000E94DC064DE054E066E080E00E94DC061B
:1006D0004EEA51E067E080E00E94DC060E944B0198
:1006E0000E9422064EE653E060E080E00E94DC06B5
:1006F00040E254E062E080E00E94DC064FE254E019
:1007000063E080E00E94DC064DE354E064E080E0BA
:100710000E94DC064EE454E065E080E00E94DC06C6
:1007200042E654E066E080E00E94DC0645E754E0E3
:1007300067E080E00E94DC060E944B010E942206D6
:1007400049E854E060E080E00E94DC064DE954E0B6
:1007500062E080E00E94DC064DEA54E064E080E064
:100760000E94DC064EEB54E065E080E00E94DC066F
:1007700041ED54E066E080E00E94DC0644EE54E087
:1007800067E080E00E94DC0688248A9493E0992E3A
:10079000A12CB12C27EFE22E24E0F22E88E030E0ED
:1007A00020E090917A00906490937A0090917A0082
:1007B00096FDFCCF4091780050917900240F351FB1
:1007C000815079F783E0369527958A95E1F73F9335
:1007D0002F93ACE4B4E00E941507A50194010E9498
:1007E000F3063F932F93FF92EF921F930F930E9474
:1007F0002407A80163E080E00E94DC06EFEFF2E549
:1008000027E0E150F0402040E1F700C000000FB6C3
:10081000F894DEBF0FBECDBF3299C0CF0E944B010E
:100820000E94220649E055E060E080E00E94DC067C
:1008300049E155E062E080E00E94DC0648E255E0D4
:1008400063E080E00E94DC064BE355E064E080E07A
:100850000E94DC069FEFE9E6F8E19150E040F040AD
:10086000E1F700C0000080E480937C0087E880937B
:100870007A008FE39CE90197F1F700C000008091B6
:100880007A00806480937A0080917A0086FDFCCFA4
:1008900080917C00807F8E6080937C00EFE8F1E0A7
:1008A0003197F1F700C0000080917A008064809356
:1008B0007A0080917A0086FDFCCFE0907800F0907D
:1008C00079000E943B01E114F10451F0970150E0DE
:1008D00040E064EB7BE281E190E00E94F306790165
:1008E0000E94220649E055E060E080E00E94DC06BC
:1008F000C70185599141873E934008F022C1FF927C
:10090000EF928BE495E09F938F931F930F930E9438
:100910002407A80162E080E00E94DC0648E555E07B
:1009200063E080E00E94DC064BE655E064E080E096
:100930000E94DC0648E755E065E080E00E94DC06A6
:100940000F900F900F900F900F900F904EEA51E084
:1009500067E080E00E94DC060E944B010E942206B4
:1009600041EC55E060E080E00E94DC0642ED55E09D
:1009700062E080E00E94DC0643EE55E063E080E048
:100980000E94DC0646EF55E064E080E00E94DC0651
:1009900043E056E065E080E00E94DC0644E156E07A
:1009A00066E080E00E94DC062FEF3DE389E4215001
:1009B00030408040E1F700C00000299A9FEFE1EE4F
:1009C000F4E09150E040F040E1F700C00000809179
:1009D0007A00806480937A0080917A0086FDFCCF53
:1009E0002091780030917900ACE4B4E00E941507C2
:1009F0002FEF33E040E050E00E94F306D22EC32EEA
:100A0000E22EF32E0E94220641EC55E060E080E0E9
:100A10000E94DC0643E256E062E080E00E94DC06D1
:100A200044E356E063E080E00E94DC06CF92DF9270
:100A300085E496E09F938F931F930F930E94240762
:100A4000A80165E080E00E94DC0644E156E066E033
:100A500080E00E94DC060F900F900F900F900F9097
:100A60000F9024E6E216F10408F089C04BE655E049
:100A700067E080E00E94DC065A9A3FEF87E893E146
:100A8000315080409040E1F700C000005A9829980A
:100A90003FEF89E698E1315080409040E1F700C097
:100AA00000004EEA51E067E080E00E94DC060E9410
:100AB0004B015A9A0E94220640E051E060E080E03B
:100AC0000E94DC0645E656E062E080E00E94DC061B
:100AD00040E756E063E080E00E94DC064FE756E026
:100AE00065E080E00E94DC0642E956E066E080E0D6
:100AF0000E94DC0642EA56E067E080E00E94DC06E5
:100B000083E05A98EFEFF2E527E0E150F040204013
:100B1000E1F700C000005A9A3FEF92E5E7E031505C
:100B20009040E040E1F700C00000815051F7FFEF36
:100B300023ED30E3F15020403040E1F700C00000E9
:100B4000F6CFFF92EF928BE895E09F938F931F93E0
:100B50000F930E942407A80162E080E00E94DC0657
:100B600048E555E063E080E00E94DC064CE955E092
:100B700064E080E00E94DC064FEA55E0DDCE41E50E
:100B800056E067E080E00E94DC065B9AEFEFF7E852
:100B900023E1E150F0402040E1F700C000005B9805
:100BA00076CF1092B9008CE08093B80084E08093F7
:100BB000BC00089594EA9093BC009091BC0097FF0C
:100BC000FCCF9091B900987F983011F0903189F462
:100BD0008093BB0084E88093BC008091BC0087FFB9
:100BE000FCCF9091B900987F81E0983119F480E0B2
:100BF000089581E0089584E98093BC008091BC0051
:100C000084FDFCCF08958093BB0084E88093BC00F2
:100C10008091BC0087FFFCCF9091B900987F81E064
:100C2000983209F480E00895CF93C82F88E70E9496
:100C3000DA0580E00E9403068C2F0E940306CF9104
:100C40000C94FB05CF93DF9381E20E94140680E0B1
:100C50000E9414068FE70E94140682E20E94140686
:100C600080E00E94140687E00E94140688E70E9434
:100C7000DA0580E40E940306C0E0D4E080E00E9430
:100C800003062197D9F7DF91CF910C94FB058EEAEB
:100C90000E94140685ED0E94140680E80E94140646
:100CA00088EA0E9414068FE30E94140683ED0E94D6
:100CB000140680E00E94140680E40E9414068DE869
:100CC0000E94140684E10E94140680E20E94140629
:100CD00080E00E94140681EA0E94140688EC0E94BB
:100CE00014068AED0E94140682E10E94140681E82F
:100CF0000E9414068FEC0E94140689ED0E941406CF
:100D000081EF0E9414068BED0E94140680E40E947D
:100D1000140684EA0E94140686EA0E9414068FEAEA
:100D20000E9414060C942206CF93DF93D82FC62F6F
:100D300081E20E9414068D2F0E9414068FE70E9404
:100D4000140682E20E9414068C2F0E94140687E08B
:100D5000DF91CF910C9414060F931F93CF93DF93E1
:100D6000C82F88E70E94DA0580E40E9403068C2FD2
:100D7000C0320CF480E2082E000C990B809725E01D
:100D8000289F8001299F100D1124D0E0C0E0085950
:100D90001F4FF801EC0FFD1F84910E94030621965E
:100DA000C530D105B1F780E00E940306DF91CF91F5
:100DB0001F910F910C94FB050F931F93CF93DF931B
:100DC0008A01982F990F890F880F0E949406E801D5
:100DD0008991811105C0DF91CF911F910F910895E5
:100DE0000E94AC06F5CFA1E21A2EAA1BBB1BFD0187
:100DF0000DC0AA1FBB1FEE1FFF1FA217B307E407FA
:100E0000F50720F0A21BB30BE40BF50B661F771F51
:100E1000881F991F1A9469F7609570958095909531
:100E20009B01AC01BD01CF010895A29FB001B39F0A
:100E3000C001A39F700D811D1124911DB29F700DE3
:100E4000811D1124911D0895AEE0B0E0EAE2F7E0C3
:100E50000C94D3090D891E8986E08C831A8309833B
:100E60008FEF9FE79E838D83AE01475E5F4F6F8953
:100E7000788DCE0101960E9447072F813885020F99
:100E8000131FF80110822E96E4E00C94EF09ABE0FA
:100E9000B0E0EDE4F7E00C94C5097C013B018A0168
:100EA000FC0117821682838181FFC8C1CE010196A1
:100EB0005C01F7019381F30193FD859193FF81918B
:100EC0003F01882309F453C1853239F493FD85919C
:100ED00093FF81913F01853229F4B70190E00E9490
:100EE0003709E7CF912C212C312CFFE1F31538F095
:100EF0008B3211F190F4803209F1833229F137FC01
:100F00003CC020ED280F2A3050F536FE20C08AE084
:100F1000989E200D1124922E06C08D3291F08033C0
:100F200071F7689430F8F30193FD859193FF8191F7
:100F30003F018111DACF21C0689431F8689432F80A
:100F4000F2CF689433F8EFCF689434F8ECCFEAE04E
:100F50002E9E200D1124222E689435F8E4CF8E3277
:100F600029F436FC04C1689436F8DDCF8C3619F4C8
:100F7000689437F8D8CF8836B1F2982F9F7D955472
:100F80009330E0F08336A1F18337C1F1833509F066
:100F900063C02801F2E04F0E511CF801C080D180DF
:100FA000692D70E036FC02C06FEF7FEFC6010E9432
:100FB00021094C01689437F882010AC00C5F1F4F69
:100FC000FFE3F98388248394912C6501E89437F832
:100FD00033FE2DC0522C8114910471F5552009F473
:100FE00068CFB70180E290E00E9437095A94F6CFAB
:100FF000F801808189830E5F1F4FE4CF2801F2E062
:101000004F0E511CF801C080D180692D70E036FC74
:1010100002C06FEF7FEFC6010E942C094C018201D4
:10102000D5CFB70180E290E00E9437092A942814B6
:10103000190409F0B0F7CECFF60137FC859137FEE1
:1010400081916F01B70190E00E94370951105A94C5
:10105000F1E08F1A9108BFCF843619F0893609F074
:1010600077C0F80137FE6BC0608171818281938106
:101070000C5F1F4FF32DFF763F2E97FF09C0909511
:101080008095709561957F4F8F4F9F4F689437F88B
:101090002AE030E0A5010E946709C82ECA188C2CEE
:1010A000432C36FE0CC0E89440F8C91440F434FEDA
:1010B00005C032FC03C0F32DFE7E4F2E892C44FE6A
:1010C00095C0FE01EC0DF11D8081803309F087C0D1
:1010D000242D297E422E842D8870582E43FC95C0E5
:1010E00040FE8FC09C2C821418F42C0C922C981863
:1010F00044FE91C0B70180E390E00E94370942FEB0
:1011000009C088E790E041FE02C088E590E0B701A1
:101110000E943709C91408F48AC0CA94D12C9FEFE1
:10112000C91AD90ACA0CDB1CF60182916F01B701FA
:1011300090E00E943709AC14BD04B1F74FCF608135
:101140007181072E000C880B990B0E5F1F4F92CFF9
:10115000D32CE894D4F82AE030E0853739F1232DF8
:10116000297FD22E8F3601F148F48835A9F0F70196
:10117000868197812B96E2E10C94E109803749F052
:101180008837A9F7D4FE02C06894D2F820E130E095
:101190000DC06894D4F8F6CF34FE03C0822F866069
:1011A000D82E20E132E002C028E030E0F801D7FE7E
:1011B0000FC060817181828193810C5F1F4FA501F7
:1011C0000E946709C82ECA183D2CE89437F867CFEB
:1011D0006081718190E080E00E5F1F4FF0CF42FC94
:1011E00002C0839478CF8394839475CF842D8678BE
:1011F00009F471CFF6CFB70180E290E00E94370981
:1012000083948214C0F3512C73CF522C581882143B
:1012100008F46ECFF8CF842D867809F47BCF8BE26B
:1012200041FE80E247FC8DE2B70190E071CFB7014B
:1012300080E390E00E9437099A946CCF8FEF9FEF84
:1012400099CFFC010590615070400110D8F780954E
:1012500090958E0F9F1F0895FC0161507040019082
:101260000110D8F7809590958E0F9F1F08950F93CA
:101270001F93CF93DF93182F092FEB018B8181FDF3
:1012800009C01FEF0FEF812F902FDF91CF911F919A
:101290000F91089582FF14C02E813F818C819D8122
:1012A000281739073CF4E881F981CF010196998329
:1012B000888310838E819F8101969F838E83E3CFE5
:1012C000E885F985812F0995892BA1F3DACFFA01F9
:1012D000AA27283051F1203181F1E8946F936E7F75
:1012E0006E5F7F4F8F4F9F4FAF4FB1E03ED0B4E066
:1012F0003CD0670F781F891F9A1FA11D680F791FA7
:101300008A1F911DA11D6A0F711D811D911DA11DB7
:1013100020D009F468943F912AE0269F11243019C7
:10132000305D3193DEF6CF010895462F4770405D62
:101330004193B3E00FD0C9F7F6CF462F4F70405D11
:101340004A3318F0495D31FD4052419302D0A9F76C
:10135000EACFB4E0A6959795879577956795BA9566
:10136000C9F700976105710508959B01AC010A2E2C
:1013700006945795479537952795BA95C9F7620F03
:10138000731F841F951FA01D08952F923F924F92A7
:101390005F926F927F928F929F92AF92BF92CF9205
:1013A000DF92EF92FF920F931F93CF93DF93CDB70E
:1013B000DEB7CA1BDB0B0FB6F894DEBF0FBECDBF86
:1013C00009942A88398848885F846E847D848C8457
:1013D0009B84AA84B984C884DF80EE80FD800C8160
:1013E0001B81AA81B981CE0FD11D0FB6F894DEBF43
:0C13F0000FBECDBFED010895F894FFCFB3
:1013FC00204B6170546573746572205632002A2A32
:10140C0020544553544D4F445553202A2A005465BB
:10141C007374657420616C6C65004B6F6D706F6ECE
:10142C00656E74656E2064657200506C6174696ED3
:10143C00652065696E7A656C6E2E002D3E204255D6
:10144C0054544F4E3A2053746172740054455354A3
:10145C0020312F31303A204C45442047524E004722
:10146C0072756E65204C454420443100736F6C6C72
:10147C00204C4555434854454E2E005369656873BE
:10148C0074206475207369653F004E696368743F0E
:10149C00202D3E204C6F747374656C6C65002D3E72
:1014AC0020425554544F4E3A20776569746572004A
:1014BC005445535420322F31303A204C454420525D
:1014CC004F5400526F7465204C4544204432004EFA
:1014DC00696368743F202D3E20525F4C4544207553
:1014EC006E64004C6F747374656C6C6520707275EF
:1014FC006566656E005445535420332F31303A20C5
:10150C004245494445004265696465204431202BBD
:10151C0020443200736F6C6C656E206C657563686B
:10152C0074656E2E00546573743A2054726569624A
:10153C00656E206265696465004C45442D50696E8A
:10154C00732067656E7567205374726F6D3F00541E
:10155C0045535420342F31303A204F4C45442050C1
:10156C00495800416C6C6520506978656C20776532
:10157C007264656E0065696E6765736368616C742F
:10158C0065742E004B65696E2064756E6B6C6572AC
:10159C0020466C65636B3F002D3E20416C6C6520D2
:1015AC00506978656C204F4B005445535420352FAF
:1015BC0031303A20464F4E540030313233343536C8
:1015CC00373839004142434445464748494A4B4C19
:1015DC004D4E4F00505152535455565758595A006E
:1015EC006162636465666768696A6B6C6D6E6F00D7
:1015FC00707172737475767778797A005445535498
:10160C0020362F31303A20425554544F4E004472FC
:10161C007565636B652064656E00427574746F6EDE
:10162C002033206D616C21005A6165686C65723ADB
:10163C00002575202F203320200054494D454F554F
:10164C005421202D3E2077656974657200425554F3
:10165C00544F4E3A204F4B2120202020200054453F
:10166C00535420372F31303A2054455354504B5457
:10167C00004D756C74696D6574657220616E6C6576
:10168C0067656E21004A545031205553425F3556E0
:10169C00002020536F6C6C3A20342E37352D352EAC
:1016AC00323556004A545032202B35565F424F414A
:1016BC005244002020536F6C6C3A207E352E3056ED
:1016CC00004A545033204C4D3331375F4F55540042
:1016DC00536F6C6C206F686E65204455543A002033
:1016EC00207E2B35565F424F415244004D69742089
:1016FC00445554202B204C6164656E3A00202046E2
:10170C0061656C6C742061756620305620616200D6
:10171C004A545034204D4541535F4E4F4445003D93
:10172C002041546D656761204144433000536F6C18
:10173C006C206F6666656E3A207E306D56004D618A
:10174C0078206D6573736261723A20313130306D7F
:10175C00560028696E7465726E6520312E315620E4
:10176C0052656629002D3E20425554544F4E3A2066
:10177C006C69766520414443005445535420382FFE
:10178C0031303A204A54503420414443004D4541B5
:10179C00535F4E4F4445206C6976653A004F666640
:1017AC00656E2020202D3E207E30206D56004D6130
:1017BC007820414443202D3E2031313030206D566D
:1017CC00004B6F6E64656E7361746F72206C616434
:1017DC00656E3F002D3E20425554544F4E3A2062C8
:1017EC0065656E64656E00553D253475206D56201B
:1017FC00207261773D253475005445535420392FA0
:10180C0031303A2041564343004D65737365204196
:10181C00564343207669610042616E646761702DA6
:10182C004D6574686F64652E2E2E002841546D65CD
:10183C00676120696E7465726E29004156434320BE
:10184C003D202575206D5600536F6C6C3A20343753
:10185C0035302D35323530206D5600457267656256
:10186C006E69733A204F4B00285553422D537061CB
:10187C006E6E756E67206775742900415643432060
:10188C003D202575206D5620212121005072756553
:10189C0066656E3A205553422D4B6162656C005162
:1018AC003120504D4F532C205553422D506F727494
:1018BC0000544553542031302F31303A444953436E
:1018CC0048005465737465743A205132202B2052B1
:1018DC003230004B65696E20445554212050423102
:1018EC002048494748002D3E205132206C656974D0
:1018FC006574004D4541535F4E4F4445202D3E20AD
:10190C00474E4400536F6C6C3A203C2031303020F1
:10191C006D560044495343485F474154453A20486B
:10192C00494748005132206C6569746574206765BD
:10193C0072616465004A5450343A202575206D5606
:10194C00005072756566656E3A2051322C20523902
:10195C002C52323000414C4C4520544553545300CA
:10196C00414247455343484C4F5353454E21004E3B
:10197C00616563687374657220536368726974740B
:10198C003A0046573120666C617368656E20756E3F
:10199C0064006D657373656E212052657365743DCB
:0419AC006E657500EF
:00000001FF
