:100000000C9424010C9441010C9441010C94410185
:100010000C9441010C9441010C9441010C94410158
:100020000C9441010C9441010C9441010C94410148
:100030000C9441010C940D050C9441010C94410168
:100040000C9441010C9441010C9441010C94410128
:100050000C9441010C9441010C9441010C94410118
:100060000C9441010C944101000000000000005F6D
:1000700000000007000700147F147F14242A7F2A41
:10008000122313086462364955225000050300000C
:10009000001C2241000041221C00082A1C2A0808DA
:1000A000083E0808005030000008080808080060F2
:1000B00060000020100804023E5149453E00427F86
:1000C000400042615149462141454B311814127F8D
:1000D0001027454545393C4A494930017109050316
:1000E0003649494936064949291E0036360000007E
:1000F000563600000008142241141414141441222E
:100100001408000201510906324979413E7E11115D
:10011000117E7F494949363E414141227F4141227A
:100120001C7F494949417F090909013E4149497AF2
:100130007F0808087F00417F41002040413F017F48
:10014000081422417F404040407F0204027F7F0428
:1001500008107F3E4141413E7F090909063E415159
:10016000215E7F09192946464949493101017F012C
:10017000013F4040403F1F2040201F3F4038403F4C
:100180006314081463070870080761514945430068
:100190007F41410002040810200041417F00040219
:1001A0000102044040404040000102040020545439
:1001B00054787F48444438384444442038444448C0
:1001C0007F3854545418087E090102085454543C92
:1001D0007F0804047800447D40002040443D007FB7
:1001E0001028440000417F40007C041804787C08FB
:1001F00004047838444444387C1414140808141453
:10020000187C7C080404084854545420043F44409B
:10021000203C4040207C1C2040201C3C4030403C86
:1002200044281028440C5050503C4464544C440022
:100230000836410000007F00000041360800080831
:100240002A1C08081C2A080811241FBECFEFD8E07A
:10025000DEBFCDBF15E0A0E0B1E0ECEBF3E202C001
:1002600005900D92A633B107D9F725E0A6E3B5E0D6
:1002700001C01D92A434B207E1F70E94D3070C9489
:10028000DC110C9400000E946C0544E051E061E038
:1002900080E00E944F074AE151E063E080E00E9465
:1002A0004F0740E351E064E080E00E944F0746E4DE
:1002B00051E066E080E00E944F074CE551E067E0C6
:1002C00080E00E944F072FEF87E893E121508040A4
:1002D0009040E1F700C00000089582E05A9A2FEFA5
:1002E0003DEE92E0215030409040E1F700C0000028
:1002F0005A982FEF3DEE92E0215030409040E1F7C8
:1003000000C00000813009F4089581E0E7CFCF9369
:10031000DF9300D000D000D0CDB7DEB749835A8339
:10032000683E23E0720781059105E0F49F938F9367
:100330007F936F9382E791E09F938F938A818F934E
:1003400099819F930E94DF0E0FB6F894DEBF0FBE17
:10035000CDBF0F900F900F900F900F900F90DF91E7
:10036000CF91089528EE33E040E050E00E94310E36
:100370002B833C834D835E832AE030E040E050E0F5
:100380000E94310E5F934F933F932F939E819F93D3
:100390002D812F938C818F939B819F9389E791E08F
:1003A0009F938F932A812F9389818F930E94DF0ED1
:1003B0000FB6F894DEBF0FBECDBFCBCF299A28E889
:1003C00033E147E850EC8FE99FE00197F1F700C077
:1003D000000050937C0040937A0080917A00806402
:1003E00080937A0080917A0086FDFCCF809178001E
:1003F00090917900863D914018F02150304019F7D6
:10040000299808954F925F926F927F928F929F9258
:10041000AF92BF92CF92DF92EF92FF920F931F9312
:10042000CF93DF93CDB7DEB76E970FB6F894DEBFEC
:100430000FBECDBF162F1F9293E09F931F928F93F5
:1004400086E891E09F938F937E010FEFE01AF00A08
:10045000FF92EF920E94DF0EA70160E080E00E9411
:100460004F078BE58983FE0132960FB6F894DEBF05
:100470000FBECDBF80E020E29DE3811720F48F5FA7
:1004800091938117E0F38F5F20838E3011F03196C6
:10049000F4CF8DE5888B198AA70162E080E00E9485
:1004A0004F074BE951E065E080E00E944F0744EBC5
:1004B00051E067E080E00E944F070E94DE0180EC7F
:1004C00080937C0087E880937A0080917A00806432
:1004D00080937A0080917A0086FDFCCF209178008D
:1004E00030917900ACE4B4E00E94220E2FEF33E0AB
:1004F00040E050E00E94310E29013A01C901DA01C1
:100500008B519440A109B109C297A105B105D0F45E
:1005100060E070E0CB016E960FB6F894DEBF0FBEC0
:10052000CDBFDF91CF911F910F91FF90EF90DF90A2
:10053000CF90BF90AF909F908F907F906F905F9083
:100540004F90089510923805109237051092360595
:100550001092850010928400B09A81E080936F0021
:100560001092800084E08093810040EC97E84093F3
:100570007C0090937A0080917A00806480937A0066
:1005800080917A0086FDFCCF20917800309179002F
:1005900080913605811151C02C3F334040F340918A
:1005A0008400509185001092810010926F0080911C
:1005B000370590913805209136052111A9CF8A0180
:1005C0009C014F8B898F3A8F9A01498D5A8D60E03B
:1005D00070E0CB0106E00E94BD0EAF88B12EC98C41
:1005E000DA8CE12CF12C87010E94D60E03E00E94E8
:1005F000BD0E00E00E94D60E05E00E94BD0EECE4A8
:10060000CE2EE4E0DE2EC418D508E608F708260151
:100610003701A12CB12C4501CF8A588EE98E7A8EF4
:100620001B8E1C8E1D8E1E8E56016701740100E00C
:100630000E94600EB901CA016ECF409184005091B2
:1006400085001092810010926F0080913705909183
:1006500038056091360561115BCF2C3F334008F4BB
:1006600057CFADCFCF93DF93CDB7DEB7C554D10908
:100670000FB6F894DEBF0FBECDBF0E946C0580910F
:100680003905813078F009F4F4C0823009F446C0AD
:10069000CB5BDF4F0FB6F894DEBF0FBECDBFDF914F
:1006A000CF910895809143058F93809142058F9358
:1006B0008DEC91E09F938F93CE0101969F938F9342
:1006C0000E94DF0EAE014F5F5F4F60E080E00E944E
:1006D0004F0743EE51E061E080E00E944F0749EF91
:1006E00051E063E080E00E944F074FE052E065E098
:1006F00080E00E944F0745E252E066E080E00E9401
:100700004F074BE352E067E080E00E944F070F90F5
:100710000F900F900F900F900F90BACF40E952E0DA
:1007200060E080E00E944F0760913A0570913B05C0
:1007300080913C0590913D0500977040604009F024
:10074000E9C0FE01BF962396FFAFEEAF23978DE27F
:100750009DE28FA798AB8283138260910001709114
:10076000010180910201909103016F3F7607860796
:10077000960709F441C1683EF3E07F0781059105C2
:1007800008F4E6C028EE33E040E050E00E94310E6D
:100790002FAF24963FAF249725964FAF25972696E7
:1007A0005FAF26972AE030E040E050E00E94310E33
:1007B0005F934F933F932F932696FFAD2697FF931A
:1007C00025962FAD25972F9324968FAD24978F9341
:1007D0009FAD9F9389E791E09F938F93FE017F9652
:1007E0002196FFAFEEAF2197FF93EF930E94DF0EAC
:1007F0000FB6F894DEBF0FBECDBF23969FAD2397F3
:100800009F932296EFAD2297EF9384EA92E09F9315
:100810008F93CE0101969F938F930E94DF0EAE01BE
:100820004F5F5F4F63E080E00E944F0721969FADCE
:1008300021979F93EFADEF9382EB92E09F938F937D
:10084000CE0101969F938F930E94DF0EAE014F5F02
:100850005F4F65E080E00E944F0740EC52E067E0A8
:1008600080E00E944F070FB6F894DEBF0FBECDBFE9
:100870000FCF41E552E060E080E00E944F07809199
:100880003F058F9380913E058F9385E692E09F937D
:100890008F93FE013196FF93EF930E94DF0EAE011E
:1008A0004F5F5F4F62E080E00E944F0780914305F9
:1008B0008F93809142058F9388E792E09F938F9367
:1008C000CE0101969F938F930E94DF0EAE014F5F82
:1008D0005F4F64E080E00E944F07809141058F9355
:1008E000809140058F9384E892E09F938F93FE015F
:1008F0003196FF93EF930E94DF0EAE014F5F5F4F83
:1009000066E080E00E944F070FB6F894DEBF0FBE8E
:10091000CDBFBECE683EF3E07F078105910580F52F
:100920009F938F937F936F9382E791E09F938F9331
:10093000CE018F9623969FAF8EAF23979F938F9371
:100940000E94DF0E0FB6F894DEBF0FBECDBF05CFFD
:100950009F938F937F936F9382E791E09F938F9301
:10096000CE014F9621969FAF8EAF21979F938F9385
:100970000E94DF0E0FB6F894DEBF0FBECDBF3DCF95
:1009800028EE33E040E050E00E94310E2FAF229677
:100990003FAF229724964FAF249725965FAF2597B8
:1009A0002AE030E040E050E00E94310E5F934F9328
:1009B0003F932F932596FFAD2597FF9324962FAD58
:1009C00024972F9322968FAD22978F939FAD9F935D
:1009D00089E791E09F938F93FE01BF962396FFAF27
:1009E000EEAF2397FF93EF930E94DF0E0FB6F894BC
:1009F000DEBF0FBECDBFB1CECE014F9621969FAFC9
:100A00008EAF21978DE29DE28F8F98A32196EEAD58
:100A1000FFAD219782831382F0CE2F932FB72F93B0
:100A20008F939F938091370590913805019690930D
:100A30003805809337058C32914018F081E080931F
:100A400036059F918F912F912FBF2F91189510925E
:100A5000B9008CE08093B80084E08093BC000895D6
:100A600094EA9093BC009091BC0097FFFCCF9091CA
:100A7000B900987F983011F0903181F48093BB00D9
:100A800084E88093BC008091BC0087FFFCCF9091EC
:100A9000B900987F81E0983119F0089581E00895B8
:100AA00080E0089584E98093BC008091BC0084FDBF
:100AB000FCCF08958093BB0084E88093BC008091B4
:100AC000BC0087FFFCCF9091B900987F81E09832FD
:100AD00009F0089580E00895CF93DF9388E70E949E
:100AE000300580E00E945A0581E20E945A050E946A
:100AF000520588E70E94300580E00E945A0580E098
:100B00000E945A050E94520588E70E94300580E045
:100B10000E945A058FE70E945A050E94520588E7F5
:100B20000E94300580E00E945A0582E20E945A0528
:100B30000E94520588E70E94300580E00E945A0515
:100B400080E00E945A050E94520588E70E94300505
:100B500080E00E945A0587E00E945A050E945205D3
:100B600088E70E94300580E40E945A05C0E0D4E086
:100B700080E00E945A052197D9F7DF91CF910C941C
:100B8000520588E70E94300580E00E945A058EEAEF
:100B90000E945A050E94520588E70E94300580E0B5
:100BA0000E945A0585ED0E945A050E94520588E769
:100BB0000E94300580E00E945A0580E80E945A0594
:100BC0000E94520588E70E94300580E00E945A0585
:100BD00088EA0E945A050E94520588E70E94300563
:100BE00080E00E945A058FE30E945A050E94520538
:100BF00088E70E94300580E00E945A0583ED0E943C
:100C00005A050E94520588E70E94300580E00E9444
:100C10005A0580E00E945A050E94520588E70E940A
:100C2000300580E00E945A0580E40E945A050E9427
:100C3000520588E70E94300580E00E945A058DE841
:100C40000E945A050E94520588E70E94300580E004
:100C50000E945A0584E10E945A050E94520588E7C5
:100C60000E94300580E00E945A0580E20E945A05E9
:100C70000E94520588E70E94300580E00E945A05D4
:100C800080E00E945A050E94520588E70E943005C4
:100C900080E00E945A0581EA0E945A050E9452058E
:100CA00088E70E94300580E00E945A0588EC0E9487
:100CB0005A050E94520588E70E94300580E00E9494
:100CC0005A058AED0E945A050E94520588E70E9443
:100CD000300580E00E945A0582E10E945A050E9478
:100CE000520588E70E94300580E00E945A0581E89D
:100CF0000E945A050E94520588E70E94300580E054
:100D00000E945A058FEC0E945A050E94520588E7FE
:100D10000E94300580E00E945A0589ED0E945A0524
:100D20000E94520588E70E94300580E00E945A0523
:100D300081EF0E945A050E94520588E70E94300503
:100D400080E00E945A058BED0E945A050E945205D0
:100D500088E70E94300580E00E945A0580E40E94E6
:100D60005A050E94520588E70E94300580E00E94E3
:100D70005A0584EA0E945A050E94520588E70E949B
:100D8000300580E00E945A0586EA0E945A050E94BA
:100D9000520588E70E94300580E00E945A058FEADC
:100DA0000E945A050E9452050C946C05CF93DF9364
:100DB00000D0CDB7DEB789836A8388E70E9430050B
:100DC00080E00E945A0581E20E945A050E94520565
:100DD00088E70E94300580E00E945A0589810E94C0
:100DE0005A050E94520588E70E94300580E00E9463
:100DF0005A058FE70E945A050E94520588E70E9413
:100E0000300580E00E945A0582E20E945A050E9445
:100E1000520588E70E94300580E00E945A058A81C9
:100E20000E945A050E94520588E70E94300580E022
:100E30000E945A0587E00E945A050F900F90DF919B
:100E4000CF910C9452051F93CF93DF93C82F88E75F
:100E50000E94300580E40E945A058C2FC0320CF4A9
:100E600080E28052982F990F990BEC01CC0FDD1F77
:100E7000CC0FDD1FC80FD91FC859DF4F15E0FE0189
:100E800084910E945A05115021961111F8CF80E0EB
:100E90000E945A05DF91CF911F910C945205EF9259
:100EA000FF921F93CF93DF93C82FD62F7A0188E745
:100EB0000E94300580E00E945A0581E20E945A0596
:100EC0000E94520588E70E94300580E00E945A0582
:100ED0008C2F880F8C0F880F0E945A050E94520594
:100EE00088E70E94300580E00E945A058FE70E9443
:100EF0005A050E94520588E70E94300580E00E9452
:100F00005A0582E20E945A050E94520588E70E9413
:100F1000300580E00E945A058D2F0E945A050E94DC
:100F2000520588E70E94300580E00E945A0587E05C
:100F30000E945A050E945205F701C081C11569F14E
:100F4000FFEFEF1AFF0A88E70E94300580E40E9455
:100F50005A058C2FC0320CF480E28052982F990FE2
:100F6000990BEC01CC0FDD1FCC0FDD1FC80FD91F73
:100F7000C859DF4F15E0FE0184910E945A051150B7
:100F800021961111F8CF80E00E945A050E94520567
:100F9000F701C1917F01C111D6CFDF91CF911F9190
:100FA000FF90EF900895CDB7DEB7C255D1090FB6C7
:100FB000F894DEBF0FBECDBF8AB18C608AB9219A8A
:100FC00087B18A7F87B9429A40985A985B98299846
:100FD00080EC80937C0087E880937A0080917A008F
:100FE000806480937A0080917A0086FDFCCF0E9415
:100FF00027050E94C10578945B9A10E02BE5F22E3C
:101000000DE50E946C054BE153E060E080E00E943A
:101010004F0740E353E062E080E00E944F0745E461
:1010200053E063E080E00E944F074AE553E065E04B
:1010300080E00E944F07F982FE01329680E09DE336
:10104000811708F090E28F5F91938E30C1F7088B83
:10105000198AAE014F5F5F4F67E082E00E944F0741
:101060002FEF3BEA4DE0215030404040E1F700C017
:1010700000001F5F1F3029F65B980E946D010E94DF
:1010800032031BE5412E10E2512E8DE3382E9DE5F3
:10109000692E3299FECF5FEF66E781E051506040E4
:1010A0008040E1F700C0000086B1382F347082FD27
:1010B000F0CF329908C0EFE9FFE03197F1F700C0B7
:1010C0000000329BF8CF9FEFA6E7B1E09150A0401F
:1010D000B040E1F700C0000080E090E021E00BC0EC
:1010E0000196AFE9BFE01197F1F700C000008E351F
:1010F000B1E09B07B9F13299F3CFAFEFB6E7E1E08A
:10110000A150B040E040E1F700C000003299E8CFC4
:101110002F5F329908C08FE99FE00197F1F700C077
:101120000000329BF8CFEFEFF6E701E0E150F0402E
:101130000040E1F700C00000253008F0C9C3AFE966
:10114000BFE01197F1F700C0000081E090E0329B12
:10115000D4CF8FE99FE00197F1F700C0000082E053
:1011600090E0C9CF253009F4B6C3223009F4F4C2A7
:10117000213009F08ECF7090390571100DC4809127
:101180003E0590913F05019680933E0590933F0563
:101190005B9A0E9443010E94DE015B980E946C05ED
:1011A00040E054E060E080E00E944F074EE054E0F1
:1011B00062E080E00E944F0760E081E00E9402024E
:1011C0004B015C0181149104A104B10409F4FBC238
:1011D000BCEDEB2EF12CF1E48F16F2E49F06FFE05C
:1011E000AF06B10420F0A2ECEA2EA1E0FA2E4FE106
:1011F00054E065E080E00E944F075B9A0E94DE01A8
:101200005B98F4E0CF2ED12C4982FE01329680E02B
:101210008D1520F48F5F31928D15E0F38F5F508232
:101220008E3011F03196F4CF688A198AAE014F5F83
:101230005F4F62E080E00E944F078BB18C258BB935
:1012400080E090E0AFE9BFE01197F1F700C0000047
:101250008C010196E816F906A9F7D394B5E0DB12E4
:10126000D3CF64E082E00E9402026FAB78AF89AF17
:101270009AAF672B682B692B09F4A5C24FE154E0A4
:1012800065E080E00E944F075B9A0E94DE015B9858
:1012900074E0F72E0F5F1F4FEF2C4982FE0132964C
:1012A00080E08F1520F48F5F31928F15E0F38F5F10
:1012B00050828E3011F03196F4CF688A198AAE01CF
:1012C0004F5F5F4F62E080E00E944F078BB18E2539
:1012D0008BB980E090E0EFE9FFE03197F1F700C0D3
:1012E0000000019608171907B1F7F394FAE0FF120E
:1012F000D4CF69E083E00E9402026BAF7CAF8DAF78
:101300009EAF672B682B692B09F45DC24FE154E057
:1013100065E080E00E944F075B9A0E94DE015B98C7
:1013200039E0F32E5BE5C52E5DE5D52E64E0E62EB3
:10133000C982FE01329680E09DE38F5F90838E30FC
:1013400049F0319690E28F15C0F79DE38F5F90834F
:101350008E30B9F7D88A198AAE014F5F5F4F62E0CD
:1013600080E00E944F078BB18E258BB980E090E022
:10137000AFE9BFE01197F1F700C000000196081730
:101380001907B1F7F394BFE0FB12D2CFEFEFF2E50C
:1013900007E0E150F0400040E1F700C00000239674
:1013A0008CAE9DAEAEAEBFAE23970FA918AD29ADE2
:1013B0003AAD081519052A053B0508F420C3640158
:1013C00075010BAD1CAD2DAD3EAD081519052A05F7
:1013D0003B0508F411C3C401D5010BAD1CAD2DAD07
:1013E0003EAD80169106A206B30608F402C39C0126
:1013F000AD012C193D094E095F09A4E6B0E00E9439
:10140000530E2B966CAF7DAF8EAF9FAF2B97C6015F
:10141000D701880F991FAA1FBB1F880F991FAA1FEA
:10142000BB1F880F991FAA1FBB1F880F991FAA1FD8
:10143000BB1F8C019D010C191D092E093F092F9618
:101440000CAF1DAF2EAF3FAF2F97CFA8D8ACE9ACF4
:10145000FAAC0BAD1CAD2DAD3EAD0C151D052E052A
:101460003F0508F4C3C20FA918AD29AD3AAD2796C0
:101470000CAF1DAF2EAF3FAF27978BAD9CADADAD81
:10148000BEAD081719072A073B0708F4A8C227961C
:101490002CAD3DAD4EAD5FAD27972C193D094E09E2
:1014A0005F09A4E6B0E00E94530E27966CAF7DAFB3
:1014B0008EAF9FAF2797C601D701880F991FAA1F2C
:1014C000BB1F880F991FAA1FBB1F880F991FAA1F38
:1014D000BB1F880F991FAA1FBB1F8C019D010C19F0
:1014E0001D092E093F096801790163968CAE9DAEF6
:1014F000AEAEBFAE63970FA918AD29AD3AAD801659
:101500009106A206B30608F463C263962CAD3DAD06
:101510004EAD5FAD639723968CAD9DADAEADBFADC7
:101520002397281B390B4A0B5B0BA4E6B0E00E9403
:10153000530EAB01BC0123968CAD9DADAEADBFADDE
:101540002397880F991FAA1FBB1F880F991FAA1FD7
:10155000BB1F880F991FAA1FBB1F880F991FAA1FA7
:10156000BB1F23960CAD1DAD2EAD3FAD2397801B49
:10157000910BA20BB30B2F960CAD1DAD2EAD3FAD55
:101580002F9784179507A607B70708F43FC22B9635
:101590008CAD9DADAEADBFAD2B97081719072A07CF
:1015A0003B0708F4FEC227960CAD1DAD2EAD3FAD36
:1015B0002797C016D106E206F30608F43FC26FA9CA
:1015C00078AD89AD9AAD680D791D8A1D9B1D0BAD57
:1015D0001CAD2DAD3EAD600F711F821F931F23E028
:1015E00030E040E050E00E94310E69017A01C11400
:1015F000D104E104F10409F421C2809142059091E3
:1016000043050196809342059093430580913A05E6
:1016100090913B05A0913C05B0913D058C159D0531
:10162000AE05BF0550F4C0923A05D0923B05E0925A
:101630003C05F0923D0577247394809100019091D0
:101640000101A0910201B0910301C816D906EA0672
:10165000FB0650F4C0920001D0920101E092020119
:10166000F092030177247394AE014F5F5F4FB60190
:10167000C7010E9487010E946C0544EC54E060E0C1
:1016800080E00E944F0747ED54E062E080E00E9456
:101690004F07AE014F5F5F4F63E080E00E944F074E
:1016A000F0EFCF16F5E5DF06E104F10408F4A9C276
:1016B00000EAC01606E8D00601E0E006F10408F4EE
:1016C00089C210E1C11619E0D10615E0E106F10466
:1016D00008F4A1C248EE52E020E4C21622E4D20689
:1016E0002FE0E206F10408F4A6C265E080E00E9463
:1016F0004F0730E1C31A37E2D30AE108F10841E7A6
:10170000C4164FE6D40648E9E406F10408F468C2BA
:1017100043EE54E066E080E00E944F075A985B9ADF
:101720004AE854E067E080E00E944F07329908C021
:10173000AFE9BFE01197F1F700C00000329BF8CF8E
:101740005FEF66E781E0515060408040E1F700C004
:1017500000003299FECFF2C1809139058F5F83304E
:1017600008F4382F309339055A9AEFEFFDEE02E076
:10177000E150F0400040E1F700C000005A981FEF30
:101780003DEE42E0115030404040E1F700C0000023
:101790002130B1F021E0E8CFEFE9FFE03197F1F738
:1017A00000C00000329BF8CF9FEFA6E7B1E0915058
:1017B000A040B040E1F700C000005B980E946D01BE
:1017C0000E94320366CC80914005909141050196BC
:1017D00080934005909341055A980E946C0548E318
:1017E00054E060E080E00E944F074AE454E062E089
:1017F00080E00E944F074FE554E064E080E00E94E3
:101800004F0745E754E065E080E00E944F074AE853
:1018100054E067E080E00E944F0785E05B9A0FEF9D
:1018200012E527E0015010402040E1F700C0000021
:101830005B983FEF42E557E0315040405040E1F7C0
:1018400000C00000815051F75B9A329908C08FE9BF
:101850009FE00197F1F700C00000329BF8CF6FEFD7
:1018600086E791E0615080409040E1F700C00000C1
:101870003299FECF329908C0EFE9FFE03197F1F7D6
:1018800000C00000329BF8CF9FEFA6E7B1E0915077
:10189000A040B040E1F700C000005B9882E05A9A97
:1018A000FFEF0DEE12E0F15000401040E1F700C0F4
:1018B00000005A982FEF3DEE42E02150304040406A
:1018C000E1F700C00000813009F47ACF81E0E7CF72
:1018D000253009F0DECB0E946C054FE653E060E056
:1018E00080E00E944F071AE05A9A5B9842E853E062
:1018F00063E080E00E944F0747E953E064E080E046
:101900000E944F074CEA53E065E080E00E944F07D9
:10191000BFEFE3ECF9E0B150E040F040E1F700C088
:1019200000005A985B9A41EC53E063E080E00E942B
:101930004F0746ED53E064E080E00E944F074BEE16
:1019400053E065E080E00E944F070FEF23EC39E0A1
:10195000015020403040E1F700C00000115021F656
:101960005B985A9882E05A9A4FEF5DEE62E04150E0
:1019700050406040E1F700C000005A989FEFADEE84
:10198000B2E09150A040B040E1F700C000008130CB
:1019900009F416CF81E0E7CF1092390582E05A9A18
:1019A0005FEF6DEE92E0515060409040E1F700C073
:1019B00000005A98AFEFBDEEE2E0A150B040E04029
:1019C000E1F700C00000813009F4FACE81E0E7CFF2
:1019D00063960CAF1DAF2EAF3FAF639796CD2796A2
:1019E0008CAF9DAFAEAFBFAF279751CD68017901E6
:1019F0003ACDC801D901FBCC68017901ECCC239622
:101A00000CAF1DAF2EAF3FAF2397D9CC2B968CAD2B
:101A10009DADAEADBFAD2B97081719072A073B0741
:101A200008F4A2C027960CAD1DAD2EAD3FAD279793
:101A3000C016D106E206F30608F4F0C08091400516
:101A400090914105019680934005909341055A98E5
:101A5000AE01495D5F4FB401C5010E948701AE012F
:101A6000495E5F4F6FA978AD89AD9AAD0E9487013D
:101A7000AE014F5F5F4F6BAD7CAD8DAD9EAD0E94F3
:101A800087010E946C054FE954E060E080E00E940D
:101A90004F074FEA54E062E080E00E944F07AE013A
:101AA000495D5F4F64E080E00E944F07AE01495EF0
:101AB0005F4F65E080E00E944F07AE014F5F5F4FD0
:101AC00066E080E00E944F074AE854E067E080E06B
:101AD0000E944F0786E05B9A5FEF62E597E0515006
:101AE00060409040E1F700C000005B98AFEFB2E5C6
:101AF000E7E0A150B040E040E1F700C000008150B5
:101B000051F75B9A329908C08FE99FE00197F1F78E
:101B100000C00000329BF8CFFFEF06E711E0F15064
:101B200000401040E1F700C000003299FECF3ACEED
:101B30008FE99FE00197F1F700C00000329BF8CFDA
:101B4000BFEFE6E7F1E0B150E040F040E1F700C060
:101B500000005A985B980E9443010E94DE010E9497
:101B60006D010E94320395CA27960CAD1DAD2EADB6
:101B70003FAD2797C016D106E206F30608F45ECF04
:101B8000CFA8D8ACE9ACFAAC0BAD1CAD2DAD3EADD9
:101B9000C00ED11EE21EF31EF694E794D794C794AC
:101BA00026CD27960CAD1DAD2EAD3FAD2797C016A7
:101BB000D106E206F30608F041CFCFA8D8ACE9ACD5
:101BC000FAACC80CD91CEA1CFB1CF694E794D79419
:101BD000C7940DCD4AE053E065E080E00E944F07D6
:101BE000711431F08091420590914305029760F4A1
:101BF0004FE055E066E080E00E944F075B985A9AFC
:101C00008FCD47ED52E071CD49EF54E066E080E0C2
:101C10000E944F07F3CF49EF52E0DECFCBACDCACF4
:101C2000EDACFEACC80CD91CEA1CFB1CF694E79486
:101C3000D794C794DCCC45E255E065E080E00E9493
:101C40004F07CECFA29FB001B39FC001A39F700DDD
:101C5000811D1124911DB29F700D811D1124911DB4
:101C60000895A1E21A2EAA1BBB1BFD010DC0AA1FDD
:101C7000BB1FEE1FFF1FA217B307E407F50720F0F5
:101C8000A21BB30BE40BF50B661F771F881F991F70
:101C90001A9469F760957095809590959B01AC01B9
:101CA000BD01CF0108950E94220EA59F900DB49F03
:101CB000900DA49F800D911D11240895689401C07A
:101CC000E8948F929F92CF93DF930E946C0EDF91E6
:101CD000CF919F908F90089588249924F401E40176
:101CE000B0E49F93AA279A158B049C04ED05FE058A
:101CF000CF05D007A10798F4AD2FDC2FCF2FFE2FF3
:101D0000E92D982C892E982F872F762F652F542F09
:101D1000432F322F2227B85031F7BF9127C01B2EF7
:101D2000BF91BB27220F331F441F551F661F771F0C
:101D3000881F991F881C991CEE1FFF1FCC1FDD1FD9
:101D4000AA1FBB1F8A149B04EC05FD05CE05DF0509
:101D5000A007B10748F08A189B08EC09FD09CE09D5
:101D6000DF09A00BB10B21601A94E1F62EF4940167
:101D7000AF01BE01CD01000C0895002E083090F097
:101D8000982F872F762F652F542F432F322F2227FE
:101D90000850F4CF220F331F441F551F661F771FB3
:101DA000881F991F0A95B2F7002D08952A0D3B1D33
:101DB0004C1D5D1D6E1D7F1D801F911F0895AEE09F
:101DC000B0E0E5EEFEE00C94B51186E08C832B8943
:101DD0003C8929833A838FEF9FE78D839E83AE01F1
:101DE000495E5F4F6D897E89CE0101960E94030F87
:101DF000EF81F8852B893C89E20FF31F10822E9624
:101E0000E2E00C94D111ACE0B0E0E9E0FFE00C942A
:101E1000A8115C016B017A01FC0116821782838193
:101E200081FFD3C12AE0522EF5012381F60123FD63
:101E3000859123FF81916F01811509F42CC18532B1
:101E400039F423FD959123FF91916F01953229F487
:101E5000B50190E00E94FE10E7CF30E0712C00E069
:101E600010E0103210F59B32C9F050F49032B9F006
:101E70009332C9F09E3261F516FD0DC1106405C0A4
:101E80009D3279F0903399F41160F60123FD95911C
:101E900023FF91916F019111E4CF23C01260146070
:101EA000F4CF1860F2CF1061F0CF17FD1AC080EDAB
:101EB000890F8A30F8F616FF05C0759C800D112435
:101EC000782EE3CF059D800D1124082F1062DDCF01
:101ED0009C3611F41068D9CF9C3409F440C0983670
:101EE000A1F2892F8F7D85548330D8F1933609F480
:101EF0005FC0933709F46AC0933509F476C094360D
:101F000019F0993609F0A2C0F70117FF98C0619146
:101F10007191819191917F011F7697FF03C00E947B
:101F20009D1110682AE030E04E014FEF841A940AA8
:101F3000A4010E943F11682E681816FFD2C0812F9D
:101F40008E7F671408F0CCC014FF1DC112FD11C1B3
:101F50001E7E972C812F867809F4CEC00FC131E008
:101F600094CF311509F1F8E0EF0EF11C8FE389836E
:101F700091E0692E712C4E018FEF881A980A1F7715
:101F800013FD04C06016710408F43FC061147104AD
:101F900009F042C0011509F447CFB50180E290E095
:101FA0000E94FE100150F6CF44E0E40EF11CDECF9B
:101FB000F70180818983F2E0EF0EF11C81E0682E49
:101FC000712C4E014FEF841A940AD9CFF7018190FA
:101FD00091907F01672D70E016FD02C06FEF7FEFDB
:101FE000C4010E94F3103C01CACFF7018190919087
:101FF0007F01672D70E016FD02C06FEF7FEFC40117
:102000000E94E8103C011068BBCFB50180E290E06F
:102010000E94FE100150B6CFF40117FD859117FF05
:1020200081914F01B50190E00E94FE1081E0011105
:1020300001C080E0081BF1E06F1A7108A7CF619121
:102040007191872F880F880B982F65CF9537C9F42A
:102050001F7E1C872AE030E0FC85F7FF3BC0F701BC
:1020600061917191819191917F014E014FEF841A9D
:10207000940AA4010E943F11682E68181C851F77DE
:102080005CCF812F897F8C87903799F058F49835F1
:10209000B9F09F36E1F0F501868197812C96EFE04B
:1020A0000C94C4119837B9F714FD06C020E130E054
:1020B000D3CF9C8590619C87EC85E460EC87F6CF5C
:1020C00014FF02C016601C8720E132E0C5CF28E073
:1020D00030E0C2CFF7016191719180E090E0C4CF10
:1020E000182F962C14FF36CFFE01E60DF11D8081CE
:1020F000803309F041C0197E13FD0EC010FF4FC0A0
:10210000762C901618F4700E7918902E802F89195D
:10211000091508F480E0980E901608F042C00919DD
:1021200014FF41C0B50180E390E00E94FE1012FF51
:1021300009C088E590E011FD02C088E790E0B50194
:102140000E94FE106714D0F14E018FEF881A980A92
:102150006A94FE013296E60DF11D3F01F301829172
:102160003F01B50190E00E94FE1068147904B1F7B8
:1021700011CF972C182FB8CF12FD02C09394BCCF6B
:1021800093949394B9CF972C182FE4CEB50180E2A5
:1021900090E00E94FE1083948016C0F3B7CF892C84
:1021A000FBCF00E0BDCF812F867861F280E211FD88
:1021B0008BE217FD8DE2B50190E0C2CFB50180E35F
:1021C00090E00E94FE107A94BDCF8FEF9FEF66CF14
:1021D000FC010590615070400110D8F780959095F2
:1021E0008E0F9F1F0895FC016150704001900110F7
:1021F000D8F7809590958E0F9F1F0895A3E0B0E0CB
:10220000E4E0F1E10C94B411182F99836A837B8385
:10221000DB0113968C9181FD09C01FEFBFEFB983DD
:10222000812F99812396E3E00C94D01182FF1BC08B
:10223000EA81FB81268137818481958128173907BE
:1022400054F40190F081E02DCF010196AA81BB8169
:102250008D939D931083EA81FB81868197810196FE
:1022600086839783DDCFAA81BB811896ED91FD917E
:102270001A97BD01812F0995892B69F3CECFFA01F9
:10228000AA27283051F1203181F1E8946F936E7FB5
:102290006E5F7F4F8F4F9F4FAF4FB1E03ED0B4E0A6
:1022A0003CD0670F781F891F9A1FA11D680F791FE7
:1022B0008A1F911DA11D6A0F711D811D911DA11DF8
:1022C00020D009F468943F912AE0269F1124301908
:1022D000305D3193DEF6CF010895462F4770405DA3
:1022E0004193B3E00FD0C9F7F6CF462F4F70405D52
:1022F0004A3318F0495D31FD4052419302D0A9F7AD
:10230000EACFB4E0A6959795879577956795BA95A6
:10231000C9F700976105710508959B01AC010A2E6C
:1023200006945795479537952795BA95C9F7620F43
:10233000731F841F951FA01D08959095809570951B
:1023400061957F4F8F4F9F4F08952F923F924F92ED
:102350005F926F927F928F929F92AF92BF92CF9235
:10236000DF92EF92FF920F931F93CF93DF93CDB73E
:10237000DEB7CA1BDB0B0FB6F894DEBF0FBECDBFB6
:1023800009942A88398848885F846E847D848C8487
:102390009B84AA84B984C884DF80EE80FD800C8190
:1023A0001B81AA81B981CE0FD11D0FB6F894DEBF73
:0C23B0000FBECDBFED010895F894FFCFE3
:1023BC00FFFFFFFF202020454E544C4144454E2E3C
:1023CC002E2E202020202020200020202053696346
:1023DC0068657268656974732D20202020202000A8
:1023EC00202020656E746C6164756E67206C61656D
:1023FC007566742020002020445554206A65747A38
:10240C0074204E4943485420202020002020616233
:10241C006E65686D656E21202020202020202020F4
:10242C002000256C75206E4600256C752E253032EB
:10243C006C75207546004D657373756E6720257538
:10244C00202F2025752020202020005374617475C6
:10245C00733A204572666173736520446174656ECE
:10246C002E2E2E0020202020202020202020202056
:10247C00202020202020202020202020004B6170B4
:10248C005465737465722056322020202023253029
:10249C003375002D2D2D2D2D2D2D2D2D2D2D2D2D3F
:1024AC002D2D2D2D2D2D2D2D002053746174757314
:1024BC003A2042657265697420202020202000207B
:1024CC0044555420616E7363686C69657373656EF3
:1024DC002020202000205354415254203D204D6593
:1024EC007373756E672020202020002032784B6C8F
:1024FC0069636B203D2053746174697374696B203C
:10250C00003D3D3D2053544154532028312F322956
:10251C00203D3D3D00476573616D74203A20257563
:10252C00205A796B6C656E00506173736564203A48
:10253C00202575004661696C6564203A202575007C
:10254C003D3D3D2053544154532028322F322920F5
:10255C003D3D3D0047726F6573737465723A20257B
:10256C0073004B6C65696E737465723A2025730049
:10257C003278204B6C69636B202D3E20486175705E
:10258C00746D656E7565004B6C65696E2020203C22
:10259C002032322075462000582D47726F737320FD
:1025AC0020203E2031206D46004D697474656C20EE
:1025BC003130302D3333307546004D697474656C91
:1025CC002032322D313030207546003D3D3D204BC0
:1025DC006170546573746572205632203D3D3D0028
:1025EC0020456E747769636B6C65723A20202020ED
:1025FC002020202000204E69636F205363686D6992
:10260C006474202020202020200020466F726D65ED
:10261C006C3A20433D492A742F6455202020002019
:10262C0020202A20444953434F204D4F4445202A13
:10263C00200020202020205C20286F29202F202003
:10264C0020202020202000202020202020207C2042
:10265C007C20202020202020202020002020202032
:10266C0020202F2020205C20202020202020202013
:10267C00002020202020205F20286F29205F202090
:10268C0020202020200020202020202F20207C20F3
:10269C007C20205C202020202020002020202020B6
:1026AC0020202F2020205C202020202020202000F3
:1026BC004D657373756E672031202F2033005B20BE
:1026CC00202020202020202020202020205D0053AE
:1026DC0074617475733A204265726569746520760D
:1026EC006F722E2E2E2020002020202A2A205449C2
:1026FC004D454F5554202A2A2000204D6573736692
:10270C0065686C65723A2020202020202020002053
:10271C004B65696E204B6F6E64656E7361746F727E
:10272C002020202000206F646572204B61702E20C9
:10273C003C203130207546202000203E204B6C6917
:10274C00636B2066756572204D656E756520002083
:10275C002020202A2A204641494C202A2A20005792
:10276C0065727465207374726575656E207374611F
:10277C00726B3A003D3D3D204D455353554E47201D
:10278C004F4B203D3D3D004B6170617A6974616532
:10279C00743A002021204245524549434853415543
:1027AC00534E41484D45202100202A205349545A6C
:1027BC00554E47532D52454B4F5244202A20002052
:1027CC005374617475733A2056616C6964696572EF
:1027DC00742020200047726F73732033333075469A
:0627EC002D31206D4600B6
:00000001FF
