:100000000C9424010C9441010C9441010C94410185
:100010000C9441010C9441010C9441010C94410158
:100020000C9441010C9441010C9441010C94410148
:100030000C9441010C94F1010C9441010C94410188
:100040000C9441010C9441010C9441010C94410128
:100050000C9441010C9441010C9441010C94410118
:100060000C9441010C944101000000000000005F6D
:1000700000000007000700147F147F14242A7F2A41
:10008000122313086462364955225000050300000C
:10009000001C2241000041221C00082A1C2A0808DA
:1000A000083E0808005030000008080808080060F2
:1000B00060000020100804023E5149453E00427F86
:1000C000400042615149462141454B311814127F8D
:1000D0001027454545393C4A494930017109050316
:1000E0003649494936064949291E0036360000007E
:1000F000563600000008142241141414141441222E
:100100001408000201510906324979413E7E11115D
:10011000117E7F494949363E414141227F4141227A
:100120001C7F494949417F090909013E4149497AF2
:100130007F0808087F00417F41002040413F017F48
:10014000081422417F404040407F0204027F7F0428
:1001500008107F3E4141413E7F090909063E415159
:10016000215E7F09192946464949493101017F012C
:10017000013F4040403F1F2040201F3F4038403F4C
:100180006314081463070870080761514945430068
:100190007F41410002040810200041417F00040219
:1001A0000102044040404040000102040020545439
:1001B00054787F48444438384444442038444448C0
:1001C0007F3854545418087E090102085454543C92
:1001D0007F0804047800447D40002040443D007FB7
:1001E0001028440000417F40007C041804787C08FB
:1001F00004047838444444387C1414140808141453
:10020000187C7C080404084854545420043F44409B
:10021000203C4040207C1C2040201C3C4030403C86
:1002200044281028440C5050503C4464544C440022
:100230000836410000007F00000041360800080831
:100240002A1C08081C2A080811241FBECFEFD8E07A
:10025000DEBFCDBF12E0A0E0B1E0ECE4F5E102C00A
:1002600005900D92A63AB107D9F722E0A6EAB2E0CE
:1002700001C01D92A93AB207E1F70E9410020C9446
:10028000A40A0C94000080917A00806480937A0024
:1002900080917A0086FDFCCF809178009091790062
:1002A00008950E942C0640E051E060E080E00E944A
:1002B000E6064EE051E062E080E00E94E6064DE195
:1002C00051E064E080E00E94E6064EE251E066E024
:1002D00080E00C94E606CF93DF93299AC0E1D7E241
:1002E0008FE99FE00197F1F700C000000E944301F1
:1002F000863D914010F0219799F729988FE59AEE65
:100300000197F1F700C00000DF91CF91089590E0D0
:100310005B9A2FEF33EC49E0215030404040E1F749
:1003200000C000005B982FEF33EC49E021503040D3
:100330004040E1F700C000009F5F8913E9CF0895B6
:10034000EF92FF920F931F93CF93DF93EA01683EE2
:1003500023E0720781059105D8F49F938F937F93D3
:100360006F938DE391E09F938F93DF934F930E9460
:1003700003088DB79EB708960FB6F8949EBF0FBEC0
:100380008DBFDF91CF911F910F91FF90EF90089556
:1003900028EE33E040E050E00E94FD06122F032FCC
:1003A000F42EE52E2AE030E040E050E00E94FD0609
:1003B0005F934F933F932F93EF92FF920F931F936F
:1003C00084E491E09F938F93DF93CF930E9403087F
:1003D0008DB79EB70C960FB6F8949EBF0FBE8DBF1B
:1003E000D0CF1F920F920FB60F9211242F938F939D
:1003F0009F938091A7029091A80201969093A802E2
:100400008093A7028C32914018F081E08093A6027D
:100410009F918F912F910F900FBE0F901F90189565
:10042000CF93DF93CDB7DEB7CF55D1090FB6F89490
:10043000DEBF0FBECDBF8AB18C608AB9219A87B169
:100440008A7F87B9429A40985A985B98299880EC9D
:1004500080937C0087E880937A0080917A008064A2
:1004600080937A0080917A0086FDFCCF0E94DB05A4
:100470000E94510678945B9A0E942C0640E051E05D
:1004800060E080E00E94E60643E751E061E080E042
:100490000E94E6064BE751E063E080E00E94E6063A
:1004A0002FEF3FE047E2215030404040E1F700C0ED
:1004B00000005B985A9A0E945101CE0101961C01DE
:1004C000DE0155962796BFAFAEAF27973299FECF84
:1004D000BFEFE6E7F1E0B150E040F040E1F700C0E7
:1004E00000003299F3CF329BFECF5B989E01275CD0
:1004F0003F4F29963FAF2EAF299788248394912CA4
:100500000E942C0640E051E060E080E00E94E60698
:100510002C968FAE2C9760969FAE60971F9233E01B
:100520003F939F928F9249E851E05F934F933F92A0
:100530002F920E940308A10163E080E00E94E6067A
:1005400049E951E065E080E00E94E6060E946B0107
:100550000E9443017C010FB6F894DEBF0FBECDBFF1
:10056000883E934008F451C1C12CD12C76012996C4
:10057000AEADBFAD2997CD92DD92ED92FD92299659
:10058000BFAFAEAF2997C114D104E104F10409F45F
:10059000C8C20E942C0640E051E060E080E00E946A
:1005A000E6061F92B3E0BF936096EFAD6097EF93BE
:1005B0002C96FFAD2C97FF9329EA31E03F932F93C0
:1005C00027965FAD27975F9326968FAD26978F93DB
:1005D0000E940308AE014B5E5F4F62E080E00E9424
:1005E000E606A101C701B6010E94A001A10163E0D6
:1005F00080E00E94E6060FB6F894DEBF0FBECDBFC6
:10060000B3E04AEB51E08B1202C049EC51E065E0E7
:1006100080E00E94E606EFEFFDE329E4E150F040C0
:100620002040E1F700C000003FEF831A930A44E046
:100630008416910409F064CF21964CAC5DAC6EAC8D
:100640007FAC219789AC9AACABACBCAC63964CAE9A
:100650005DAE6EAE7FAE639784149504A604B704B6
:1006600030F463968CAE9DAEAEAEBFAE639725966A
:100670002CAD3DAD4EAD5FAD25972B962CAF3DAF6C
:100680004EAF5FAF2B9775016401281539054A05F8
:100690005B0510F469017A01D501C4012B962CADDC
:1006A0003DAD4EAD5FAD2B9782169306A406B50601
:1006B00010F4DA01C9019C01AD012C193D094E0964
:1006C0005F09A4E6B0E00E942E0767966CAF7DAF8D
:1006D0008EAF9FAF6797AFE0B0E0A70196010E9491
:1006E0002E076B966CAF7DAF8EAF9FAF6B9773018C
:1006F00062012B968CAD9DADAEADBFAD2B97841531
:100700009505A605B70510F46C017D01D301C20162
:100710002B962CAD3DAD4EAD5FAD2B9742165306DB
:100720006406750610F4DA01C9019C01AD012C19AB
:100730003D094E095F09A4E6B0E00E942E072F96FE
:100740006CAF7DAF8EAF9FAF2F97AFE0B0E0A7014A
:1007500096010E942E076B017C01A30192014814AF
:1007600059046A047B0410F4A501940163968CADCE
:100770009DADAEADBFAD6397281B390B4A0B5B0B2C
:10078000A4E6B0E00E942E076F966CAF7DAF8EAFEF
:100790009FAF6F97AFE0B0E063962CAD3DAD4EAD2F
:1007A0005FAD63970E942E076F962CAD3DAD4EADA9
:1007B0005FAD6F97621773078407950708F0ADC0A8
:1007C00067968CAD9DADAEADBFAD67976B962CAD0A
:1007D0003DAD4EAD5FAD6B97281739074A075B07F4
:1007E00008F4D2C12F968CAD9DADAEADBFAD2F97A5
:1007F000C816D906EA06FB0608F0CAC02B96CCAC90
:10080000DDACEEACFFAC2B9721C11092A802109288
:10081000A7021092A6021092850010928400B09A4E
:10082000E1E0E0936F0010928000F4E0F09381002B
:1008300010E000E00E944301AC010F5F1F4F043F36
:1008400021E0120730F09BB134E093279BB910E010
:1008500000E08091A602811104C04C3F83E058075C
:1008600048F320918400309185001092810010920D
:100870006F006091A7027091A8025A988091A60219
:10088000811172CE4C3F534008F46ECE90E080E070
:10089000CB0177276627620F731F811D911D20E210
:1008A00031E440E050E00E94390764962FAF64972E
:1008B00068963FAF68972A013B016C968FAF6C97A3
:1008C000A0969FAFA0972CEF33E02E193F09ACE420
:1008D000B4E00E941F072FEF33E040E050E00E9499
:1008E000FD06890158016A01E12CF12C00E010E0BD
:1008F00064962FAD649768963FAD6897A201B301E7
:100900006C968FAD6C97A0969FADA0970E946607DE
:10091000C22ED32EE42EF52E2ACE67968CAD9DAD39
:10092000AEADBFAD67976B962CAD3DAD4EAD5FAD37
:100930006B97281739074A075B0708F479C02F9689
:100940008CAD9DADAEADBFAD2F97C816D906EA06EA
:10095000FB06F0F0C301B201680D791D8A1D9B1DD5
:100960002B962CAD3DAD4EAD5FAD2B97620F731F37
:10097000841F951F23E030E040E050E00E94FD0618
:1009800069017A01C114D104E104F10409F067C0DE
:10099000AE01475D5F4FC501B4010E94A001AE01E9
:1009A0004B5E5F4FC301B2010E94A001A1012B96D3
:1009B0006CAD7DAD8EAD9FAD2B970E94A0015A9876
:1009C0000E942C064AED51E060E080E00E94E606BD
:1009D0004CEE51E062E080E00E94E606AE01475D29
:1009E0005F4F63E080E00E94E606AE014B5E5F4F22
:1009F00064E080E00E94E606A10165E080E00E94DC
:100A0000E6064BEF51E067E080E00E94E60686E0F4
:100A10000E9487015B9A9FEFABE7B2E99150A0403B
:100A2000B040E1F700C000005B980E946B016CC011
:100A30002F968CAD9DADAEADBFAD2F97C816D90624
:100A4000EA06FB0608F0A4CF73016201C80CD91CAA
:100A5000EA1CFB1CF694E794D794C79493CFA101AA
:100A6000C701B6010E94A001E0E1CE16E7E2DE0672
:100A7000E104F10470F002E611E0F1E8CF16F6E9C6
:100A8000DF06F8E9EF06F10430F40BE012E0F12C98
:100A900004C001E511E0FF24F3940E942C0640E01D
:100AA00051E060E080E00E94E6064CE052E062E047
:100AB00080E00E94E606A10163E080E00E94E60675
:100AC000FF2031F1A80165E080E00E94E60646E1E2
:100AD00052E066E080E00E94E6065A9883E00E94B9
:100AE00087015B9A43E352E067E080E00E94E606FC
:100AF0002FEF35EA4EE0215030404040E1F700C092
:100B000000000E946B015B985A9A0E945101DECC52
:100B100047E252E065E080E00E94E6065B985A9A60
:100B2000E1CF5A980E942C0644E452E060E080E055
:100B30000E94E60642E552E062E080E00E94E6069E
:100B400046E652E063E080E00E94E60641E752E0BC
:100B500064E080E00E94E6064FE752E065E080E056
:100B60000E94E60643E952E066E080E00E94E60665
:100B700085E00E9487015B9A5FEF8BE792E9515015
:100B800080409040E1F74ECF2F962CAD3DAD4EAD5D
:100B90005FAD2F97C216D306E406F50608F4F8CE2B
:100BA0002B96CCACDDACEEACFFAC2B97C40CD51CBB
:100BB000E61CF71C4FCF1092B9008CE08093B80070
:100BC00084E08093BC00089594EA9093BC009091D7
:100BD000BC0097FFFCCF9091B900987F983011F03E
:100BE000903189F48093BB0084E88093BC008091AD
:100BF000BC0087FFFCCF9091B900987F81E09831CD
:100C000019F480E0089581E0089584E98093BC00A0
:100C10008091BC0084FDFCCF08958093BB0084E8E4
:100C20008093BC008091BC0087FFFCCF9091B900FD
:100C3000987F81E0983209F480E00895CF93C82F1F
:100C400088E70E94E40580E00E940D068C2F0E9438
:100C50000D06CF910C940506CF93DF9381E20E949D
:100C60001E0680E00E941E068FE70E941E0682E29A
:100C70000E941E0680E00E941E0687E00E941E065B
:100C800088E70E94E40580E40E940D06C0E0D4E0FD
:100C900080E00E940D062197D9F7DF91CF910C9447
:100CA00005068EEA0E941E0685ED0E941E0680E85B
:100CB0000E941E0688EA0E941E068FE30E941E06FE
:100CC00083ED0E941E0680E00E941E0680E40E94C2
:100CD0001E068DE80E941E0684E10E941E0680E228
:100CE0000E941E0680E00E941E0681EA0E941E06E7
:100CF00088EC0E941E068AED0E941E0682E10E9478
:100D00001E0681E80E941E068FEC0E941E0689EDD9
:100D10000E941E0681EF0E941E068BED0E941E0699
:100D200080E40E941E0684EA0E941E0686EA0E9453
:100D30001E068FEA0E941E060C942C06CF93DF93AA
:100D4000D82FC62F81E20E941E068D2F0E941E06FC
:100D50008FE70E941E0682E20E941E068C2F0E94D0
:100D60001E0687E0DF91CF910C941E060F931F9310
:100D7000CF93DF93C82F88E70E94E40580E40E94A8
:100D80000D068C2FC0320CF480E2082E000C990B5B
:100D9000809725E0289F8001299F100D1124D0E025
:100DA000C0E008591F4FF801EC0FFD1F84910E940D
:100DB0000D062196C530D105B1F780E00E940D06E1
:100DC000DF91CF911F910F910C9405060F931F9304
:100DD000CF93DF938A01982F990F890F880F0E9474
:100DE0009E06E8018991811105C0DF91CF911F9185
:100DF0000F9108950E94B606F5CFA1E21A2EAA1B04
:100E0000BB1BFD010DC0AA1FBB1FEE1FFF1FA217BA
:100E1000B307E407F50720F0A21BB30BE40BF50BB7
:100E2000661F771F881F991F1A9469F76095709540
:100E3000809590959B01AC01BD01CF010895A29FC3
:100E4000B001B39FC001A39F700D811D1124911D9E
:100E5000B29F700D811D1124911D08950E941F07DE
:100E6000A59F900DB49F900DA49F800D911D1124FE
:100E70000895E894DF93CF93FC01DB010E941F07E4
:100E80007F936F93E9019A01AC01BF93AF933F93B6
:100E90002F93DF010E941F0726F46C1B7D0B820B32
:100EA000930B9E01EB01FC010E94FA07AF91BF91E9
:100EB0002F913F910E94FA07BE01CF01F9012F91B6
:100EC0003F91CF91DF910895689401C0E8948F928B
:100ED0009F92CF93DF930E947207DF91CF919F90F3
:100EE0008F90089588249924F401E401B0E49F933D
:100EF000AA279A158B049C04ED05FE05CF05D007A3
:100F0000A10798F4AD2FDC2FCF2FFE2FE92D982CC1
:100F1000892E982F872F762F652F542F432F322F0E
:100F20002227B85031F7BF9127C01B2EBF91BB2796
:100F3000220F331F441F551F661F771F881F991FDD
:100F4000881C991CEE1FFF1FCC1FDD1FAA1FBB1F93
:100F50008A149B04EC05FD05CE05DF05A007B1074B
:100F600048F08A189B08EC09FD09CE09DF09A00B9F
:100F7000B10B21601A94E1F62EF49401AF01BE0189
:100F8000CD01000C08952F923F924F925F926F9285
:100F90007F928F929F92AF92BF92CF92DF92EF9209
:100FA000FF920F931F93CF93DF93CDB7DEB7CA1B8A
:100FB000DB0B0FB6F894DEBF0FBECDBF09942A88B5
:100FC000398848885F846E847D848C849B84AA845D
:100FD000B984C884DF80EE80FD800C811B81AA81EA
:100FE000B981CE0FD11D0FB6F894DEBF0FBECDBFB5
:100FF000ED0108950E941F07460F571FC81FD91FF4
:1010000008F431960895AEE0B0E0E9E0F8E00C9421
:10101000D1070D891E8986E08C831A8309838FEF9F
:101020009FE79E838D83AE01475E5F4F6F89788D0A
:10103000CE0101960E9426082F813885020F131FCA
:10104000F80110822E96E4E00C94ED07ABE0B0E0DE
:10105000ECE2F8E00C94C3077C013B018A01FC013F
:1010600017821682838181FFC8C1CE0101965C017F
:10107000F7019381F30193FD859193FF81913F01E6
:10108000882309F453C1853239F493FD859193FF88
:1010900081913F01853229F4B70190E00E94160A40
:1010A000E7CF912C212C312CFFE1F31538F08B3256
:1010B00011F190F4803209F1833229F137FC3CC000
:1010C00020ED280F2A3050F536FE20C08AE0989E89
:1010D000200D1124922E06C08D3291F0803371F7CD
:1010E000689430F8F30193FD859193FF81913F015E
:1010F0008111DACF21C0689431F8689432F8F2CFC8
:10110000689433F8EFCF689434F8ECCFEAE02E9E81
:10111000200D1124222E689435F8E4CF8E3229F464
:1011200036FC04C1689436F8DDCF8C3619F4689427
:1011300037F8D8CF8836B1F2982F9F7D95549330E9
:10114000E0F08336A1F18337C1F1833509F063C044
:101150002801F2E04F0E511CF801C080D180692DAA
:1011600070E036FC02C06FEF7FEFC6010E94000AFC
:101170004C01689437F882010AC00C5F1F4FFFE3EF
:10118000F98388248394912C6501E89437F833FE21
:101190002DC0522C8114910471F5552009F468CFAB
:1011A000B70180E290E00E94160A5A94F6CFF80147
:1011B000808189830E5F1F4FE4CF2801F2E04F0E3C
:1011C000511CF801C080D180692D70E036FC02C04E
:1011D0006FEF7FEFC6010E940B0A4C018201D5CF51
:1011E000B70180E290E00E94160A2A94281419049C
:1011F00009F0B0F7CECFF60137FC859137FE81912B
:101200006F01B70190E00E94160A51105A94F1E064
:101210008F1A9108BFCF843619F0893609F077C04C
:10122000F80137FE6BC060817181828193810C5F10
:101230001F4FF32DFF763F2E97FF09C090958095A5
:10124000709561957F4F8F4F9F4F689437F82AE0D4
:1012500030E0A5010E94460AC82ECA188C2C432CE7
:1012600036FE0CC0E89440F8C91440F434FE05C0C2
:1012700032FC03C0F32DFE7E4F2E892C44FE95C018
:10128000FE01EC0DF11D8081803309F087C0242D13
:10129000297E422E842D8870582E43FC95C040FE36
:1012A0008FC09C2C821418F42C0C922C981844FE9D
:1012B00091C0B70180E390E00E94160A42FE09C087
:1012C00088E790E041FE02C088E590E0B7010E9407
:1012D000160AC91408F48AC0CA94D12C9FEFC91AFF
:1012E000D90ACA0CDB1CF60182916F01B70190E0AC
:1012F0000E94160AAC14BD04B1F74FCF6081718112
:10130000072E000C880B990B0E5F1F4F92CFD32C2A
:10131000E894D4F82AE030E0853739F1232D297F8D
:10132000D22E8F3601F148F48835A9F0F701868175
:1013300097812B96E2E10C94DF07803749F08837DC
:10134000A9F7D4FE02C06894D2F820E130E00DC0C5
:101350006894D4F8F6CF34FE03C0822F8660D82E6E
:1013600020E132E002C028E030E0F801D7FE0FC0F3
:1013700060817181828193810C5F1F4FA5010E9462
:10138000460AC82ECA183D2CE89437F867CF60810A
:10139000718190E080E00E5F1F4FF0CF42FC02C0F1
:1013A000839478CF8394839475CF842D867809F4C1
:1013B00071CFF6CFB70180E290E00E94160A8394C5
:1013C0008214C0F3512C73CF522C5818821408F495
:1013D0006ECFF8CF842D867809F47BCF8BE241FE67
:1013E00080E247FC8DE2B70190E071CFB70180E366
:1013F00090E00E94160A9A946CCF8FEF9FEF99CFDE
:10140000FC010590615070400110D8F780959095CF
:101410008E0F9F1F0895FC016150704001900110D4
:10142000D8F7809590958E0F9F1F08950F931F9367
:10143000CF93DF93182F092FEB018B8181FD09C01A
:101440001FEF0FEF812F902FDF91CF911F910F9101
:10145000089582FF14C02E813F818C819D812817C1
:1014600039073CF4E881F981CF010196998388839B
:1014700010838E819F8101969F838E83E3CFE885C1
:10148000F985812F0995892BA1F3DACFFA01AA27D3
:10149000283051F1203181F1E8946F936E7F6E5FB7
:1014A0007F4F8F4F9F4FAF4FB1E03ED0B4E03CD065
:1014B000670F781F891F9A1FA11D680F791F8A1F48
:1014C000911DA11D6A0F711D811D911DA11D20D0AF
:1014D00009F468943F912AE0269F11243019305D69
:1014E0003193DEF6CF010895462F4770405D41935A
:1014F000B3E00FD0C9F7F6CF462F4F70405D4A33A7
:1015000018F0495D31FD4052419302D0A9F7EACF6E
:10151000B4E0A6959795879577956795BA95C9F79D
:1015200000976105710508959B01AC010A2E069490
:101530005795479537952795BA95C9F7620F731F49
:0C154000841F951FA01D0895F894FFCF94
:10154C00204B61705465737465722056320053746D
:10155C00617475733A204265726569740044555420
:10156C0020616E7363686C69657373656E005354A8
:10157C004152542064727565636B656E00256C7501
:10158C00206E4600256C752E2530326C7520754604
:10159C00005761726E756E673A203C2031302075B1
:1015AC0046005761726E756E673A203E20313020CE
:1015BC006D460020202076312E3100486F6368661E
:1015CC00616872656E2E2E2E004D657373756E6795
:1015DC00202575202F2025750042697474652077AD
:1015EC00617274656E2E2E2E004D657373756E6769
:1015FC00202575202F2025753A002D3E204E616543
:10160C0063687374652E2E2E002D3E204175737702
:10161C00657274756E672E2E2E002A2A20554E5038
:10162C004C4155534942454C202A2A005765727447
:10163C0065207374726575656E3A004B6F6E7461DC
:10164C006B74207072756566656E210045726765F6
:10165C00626E69733A00417573736572682E20422D
:10166C0065726569636800426572656963683A20F2
:10167C004F4B0053544152543D6E6575206D65734C
:10168C0073656E002A2A2054494D454F5554202A23
:10169C002A004D6F65676C696368652055727361CC
:1016AC006368656E3A002D204B65696E2044555475
:1016BC00002D20445554203C203130207546002DFF
:1016CC00204455542066616C736368206765706FA5
:1016DC006C74002D204B6F6E74616B74207072757E
:0616EC006566656E00005A
:00000001FF
